{
  "_format": "hh-sol-artifact-1",
  "contractName": "MadTesst",
  "sourceName": "contracts/MadTesst.sol",
  "abi": [
    {
      "inputs": [],
      "stateMutability": "nonpayable",
      "type": "constructor"
    },
    {
      "inputs": [],
      "name": "ApprovalCallerNotOwnerNorApproved",
      "type": "error"
    },
    {
      "inputs": [],
      "name": "ApprovalQueryForNonexistentToken",
      "type": "error"
    },
    {
      "inputs": [],
      "name": "ApprovalToCurrentOwner",
      "type": "error"
    },
    {
      "inputs": [],
      "name": "ApproveToCaller",
      "type": "error"
    },
    {
      "inputs": [],
      "name": "BalanceQueryForZeroAddress",
      "type": "error"
    },
    {
      "inputs": [],
      "name": "MintToZeroAddress",
      "type": "error"
    },
    {
      "inputs": [],
      "name": "MintZeroQuantity",
      "type": "error"
    },
    {
      "inputs": [],
      "name": "OwnerQueryForNonexistentToken",
      "type": "error"
    },
    {
      "inputs": [],
      "name": "TransferCallerNotOwnerNorApproved",
      "type": "error"
    },
    {
      "inputs": [],
      "name": "TransferFromIncorrectOwner",
      "type": "error"
    },
    {
      "inputs": [],
      "name": "TransferToNonERC721ReceiverImplementer",
      "type": "error"
    },
    {
      "inputs": [],
      "name": "TransferToZeroAddress",
      "type": "error"
    },
    {
      "inputs": [],
      "name": "URIQueryForNonexistentToken",
      "type": "error"
    },
    {
      "anonymous": false,
      "inputs": [
        {
          "indexed": true,
          "internalType": "address",
          "name": "owner",
          "type": "address"
        },
        {
          "indexed": true,
          "internalType": "address",
          "name": "approved",
          "type": "address"
        },
        {
          "indexed": true,
          "internalType": "uint256",
          "name": "tokenId",
          "type": "uint256"
        }
      ],
      "name": "Approval",
      "type": "event"
    },
    {
      "anonymous": false,
      "inputs": [
        {
          "indexed": true,
          "internalType": "address",
          "name": "owner",
          "type": "address"
        },
        {
          "indexed": true,
          "internalType": "address",
          "name": "operator",
          "type": "address"
        },
        {
          "indexed": false,
          "internalType": "bool",
          "name": "approved",
          "type": "bool"
        }
      ],
      "name": "ApprovalForAll",
      "type": "event"
    },
    {
      "anonymous": false,
      "inputs": [
        {
          "indexed": true,
          "internalType": "address",
          "name": "account",
          "type": "address"
        },
        {
          "indexed": false,
          "internalType": "uint256",
          "name": "amount",
          "type": "uint256"
        }
      ],
      "name": "Claimed",
      "type": "event"
    },
    {
      "anonymous": false,
      "inputs": [
        {
          "indexed": false,
          "internalType": "bytes32",
          "name": "merkleRoot",
          "type": "bytes32"
        }
      ],
      "name": "MerkleRootChanged",
      "type": "event"
    },
    {
      "anonymous": false,
      "inputs": [
        {
          "indexed": true,
          "internalType": "address",
          "name": "previousOwner",
          "type": "address"
        },
        {
          "indexed": true,
          "internalType": "address",
          "name": "newOwner",
          "type": "address"
        }
      ],
      "name": "OwnershipTransferred",
      "type": "event"
    },
    {
      "anonymous": false,
      "inputs": [
        {
          "indexed": true,
          "internalType": "address",
          "name": "from",
          "type": "address"
        },
        {
          "indexed": true,
          "internalType": "address",
          "name": "to",
          "type": "address"
        },
        {
          "indexed": true,
          "internalType": "uint256",
          "name": "tokenId",
          "type": "uint256"
        }
      ],
      "name": "Transfer",
      "type": "event"
    },
    {
      "inputs": [],
      "name": "allowListActive",
      "outputs": [
        {
          "internalType": "bool",
          "name": "",
          "type": "bool"
        }
      ],
      "stateMutability": "view",
      "type": "function"
    },
    {
      "inputs": [
        {
          "internalType": "uint256",
          "name": "numberOfTokens",
          "type": "uint256"
        },
        {
          "internalType": "bytes32[]",
          "name": "merkleProof",
          "type": "bytes32[]"
        }
      ],
      "name": "allowListMint",
      "outputs": [],
      "stateMutability": "payable",
      "type": "function"
    },
    {
      "inputs": [
        {
          "internalType": "address",
          "name": "to",
          "type": "address"
        },
        {
          "internalType": "uint256",
          "name": "tokenId",
          "type": "uint256"
        }
      ],
      "name": "approve",
      "outputs": [],
      "stateMutability": "nonpayable",
      "type": "function"
    },
    {
      "inputs": [
        {
          "internalType": "address",
          "name": "owner",
          "type": "address"
        }
      ],
      "name": "balanceOf",
      "outputs": [
        {
          "internalType": "uint256",
          "name": "",
          "type": "uint256"
        }
      ],
      "stateMutability": "view",
      "type": "function"
    },
    {
      "inputs": [
        {
          "internalType": "address",
          "name": "from",
          "type": "address"
        }
      ],
      "name": "getAllowListMinted",
      "outputs": [
        {
          "internalType": "uint256",
          "name": "",
          "type": "uint256"
        }
      ],
      "stateMutability": "view",
      "type": "function"
    },
    {
      "inputs": [
        {
          "internalType": "uint256",
          "name": "tokenId",
          "type": "uint256"
        }
      ],
      "name": "getApproved",
      "outputs": [
        {
          "internalType": "address",
          "name": "",
          "type": "address"
        }
      ],
      "stateMutability": "view",
      "type": "function"
    },
    {
      "inputs": [
        {
          "internalType": "address",
          "name": "owner",
          "type": "address"
        },
        {
          "internalType": "address",
          "name": "operator",
          "type": "address"
        }
      ],
      "name": "isApprovedForAll",
      "outputs": [
        {
          "internalType": "bool",
          "name": "",
          "type": "bool"
        }
      ],
      "stateMutability": "view",
      "type": "function"
    },
    {
      "inputs": [],
      "name": "maxAllow",
      "outputs": [
        {
          "internalType": "uint256",
          "name": "",
          "type": "uint256"
        }
      ],
      "stateMutability": "view",
      "type": "function"
    },
    {
      "inputs": [],
      "name": "maxReserve",
      "outputs": [
        {
          "internalType": "uint256",
          "name": "",
          "type": "uint256"
        }
      ],
      "stateMutability": "view",
      "type": "function"
    },
    {
      "inputs": [],
      "name": "maxSupply",
      "outputs": [
        {
          "internalType": "uint256",
          "name": "",
          "type": "uint256"
        }
      ],
      "stateMutability": "view",
      "type": "function"
    },
    {
      "inputs": [],
      "name": "maxVip",
      "outputs": [
        {
          "internalType": "uint256",
          "name": "",
          "type": "uint256"
        }
      ],
      "stateMutability": "view",
      "type": "function"
    },
    {
      "inputs": [],
      "name": "merkleRoot",
      "outputs": [
        {
          "internalType": "bytes32",
          "name": "",
          "type": "bytes32"
        }
      ],
      "stateMutability": "view",
      "type": "function"
    },
    {
      "inputs": [],
      "name": "mintPrice",
      "outputs": [
        {
          "internalType": "uint256",
          "name": "",
          "type": "uint256"
        }
      ],
      "stateMutability": "view",
      "type": "function"
    },
    {
      "inputs": [],
      "name": "name",
      "outputs": [
        {
          "internalType": "string",
          "name": "",
          "type": "string"
        }
      ],
      "stateMutability": "view",
      "type": "function"
    },
    {
      "inputs": [
        {
          "internalType": "address",
          "name": "claimer",
          "type": "address"
        },
        {
          "internalType": "bytes32[]",
          "name": "proof",
          "type": "bytes32[]"
        }
      ],
      "name": "onAllowList",
      "outputs": [
        {
          "internalType": "bool",
          "name": "",
          "type": "bool"
        }
      ],
      "stateMutability": "view",
      "type": "function"
    },
    {
      "inputs": [],
      "name": "owner",
      "outputs": [
        {
          "internalType": "address",
          "name": "",
          "type": "address"
        }
      ],
      "stateMutability": "view",
      "type": "function"
    },
    {
      "inputs": [
        {
          "internalType": "uint256",
          "name": "tokenId",
          "type": "uint256"
        }
      ],
      "name": "ownerOf",
      "outputs": [
        {
          "internalType": "address",
          "name": "",
          "type": "address"
        }
      ],
      "stateMutability": "view",
      "type": "function"
    },
    {
      "inputs": [
        {
          "internalType": "uint256",
          "name": "numberOfTokens",
          "type": "uint256"
        }
      ],
      "name": "publicMint",
      "outputs": [],
      "stateMutability": "payable",
      "type": "function"
    },
    {
      "inputs": [],
      "name": "renounceOwnership",
      "outputs": [],
      "stateMutability": "nonpayable",
      "type": "function"
    },
    {
      "inputs": [],
      "name": "reserveSupply",
      "outputs": [
        {
          "internalType": "uint256",
          "name": "",
          "type": "uint256"
        }
      ],
      "stateMutability": "view",
      "type": "function"
    },
    {
      "inputs": [
        {
          "internalType": "address",
          "name": "from",
          "type": "address"
        },
        {
          "internalType": "address",
          "name": "to",
          "type": "address"
        },
        {
          "internalType": "uint256",
          "name": "tokenId",
          "type": "uint256"
        }
      ],
      "name": "safeTransferFrom",
      "outputs": [],
      "stateMutability": "nonpayable",
      "type": "function"
    },
    {
      "inputs": [
        {
          "internalType": "address",
          "name": "from",
          "type": "address"
        },
        {
          "internalType": "address",
          "name": "to",
          "type": "address"
        },
        {
          "internalType": "uint256",
          "name": "tokenId",
          "type": "uint256"
        },
        {
          "internalType": "bytes",
          "name": "_data",
          "type": "bytes"
        }
      ],
      "name": "safeTransferFrom",
      "outputs": [],
      "stateMutability": "nonpayable",
      "type": "function"
    },
    {
      "inputs": [],
      "name": "saleActive",
      "outputs": [
        {
          "internalType": "bool",
          "name": "",
          "type": "bool"
        }
      ],
      "stateMutability": "view",
      "type": "function"
    },
    {
      "inputs": [],
      "name": "saleOver",
      "outputs": [
        {
          "internalType": "bool",
          "name": "",
          "type": "bool"
        }
      ],
      "stateMutability": "view",
      "type": "function"
    },
    {
      "inputs": [
        {
          "internalType": "bytes32",
          "name": "merkleRoot",
          "type": "bytes32"
        }
      ],
      "name": "setAllowList",
      "outputs": [],
      "stateMutability": "nonpayable",
      "type": "function"
    },
    {
      "inputs": [
        {
          "internalType": "bool",
          "name": "allowListActive",
          "type": "bool"
        }
      ],
      "name": "setAllowListActive",
      "outputs": [],
      "stateMutability": "nonpayable",
      "type": "function"
    },
    {
      "inputs": [
        {
          "internalType": "address",
          "name": "operator",
          "type": "address"
        },
        {
          "internalType": "bool",
          "name": "approved",
          "type": "bool"
        }
      ],
      "name": "setApprovalForAll",
      "outputs": [],
      "stateMutability": "nonpayable",
      "type": "function"
    },
    {
      "inputs": [
        {
          "internalType": "string",
          "name": "baseTokenUri_",
          "type": "string"
        }
      ],
      "name": "setBaseTokenUri",
      "outputs": [],
      "stateMutability": "nonpayable",
      "type": "function"
    },
    {
      "inputs": [
        {
          "internalType": "bool",
          "name": "state",
          "type": "bool"
        }
      ],
      "name": "setSaleActive",
      "outputs": [],
      "stateMutability": "nonpayable",
      "type": "function"
    },
    {
      "inputs": [
        {
          "internalType": "bool",
          "name": "state",
          "type": "bool"
        }
      ],
      "name": "setVipSaleOver",
      "outputs": [],
      "stateMutability": "nonpayable",
      "type": "function"
    },
    {
      "inputs": [
        {
          "internalType": "bytes4",
          "name": "interfaceId",
          "type": "bytes4"
        }
      ],
      "name": "supportsInterface",
      "outputs": [
        {
          "internalType": "bool",
          "name": "",
          "type": "bool"
        }
      ],
      "stateMutability": "view",
      "type": "function"
    },
    {
      "inputs": [],
      "name": "symbol",
      "outputs": [
        {
          "internalType": "string",
          "name": "",
          "type": "string"
        }
      ],
      "stateMutability": "view",
      "type": "function"
    },
    {
      "inputs": [
        {
          "internalType": "uint256",
          "name": "tokenId",
          "type": "uint256"
        }
      ],
      "name": "tokenURI",
      "outputs": [
        {
          "internalType": "string",
          "name": "",
          "type": "string"
        }
      ],
      "stateMutability": "view",
      "type": "function"
    },
    {
      "inputs": [],
      "name": "totalSupply",
      "outputs": [
        {
          "internalType": "uint256",
          "name": "",
          "type": "uint256"
        }
      ],
      "stateMutability": "view",
      "type": "function"
    },
    {
      "inputs": [
        {
          "internalType": "address",
          "name": "from",
          "type": "address"
        },
        {
          "internalType": "address",
          "name": "to",
          "type": "address"
        },
        {
          "internalType": "uint256",
          "name": "tokenId",
          "type": "uint256"
        }
      ],
      "name": "transferFrom",
      "outputs": [],
      "stateMutability": "nonpayable",
      "type": "function"
    },
    {
      "inputs": [
        {
          "internalType": "address",
          "name": "newOwner",
          "type": "address"
        }
      ],
      "name": "transferOwnership",
      "outputs": [],
      "stateMutability": "nonpayable",
      "type": "function"
    },
    {
      "inputs": [
        {
          "internalType": "uint256",
          "name": "numberOfTokens",
          "type": "uint256"
        },
        {
          "internalType": "bytes32[]",
          "name": "merkleProof",
          "type": "bytes32[]"
        }
      ],
      "name": "vipMint",
      "outputs": [],
      "stateMutability": "nonpayable",
      "type": "function"
    },
    {
      "inputs": [
        {
          "internalType": "address",
          "name": "",
          "type": "address"
        }
      ],
      "name": "vipWalletMints",
      "outputs": [
        {
          "internalType": "uint256",
          "name": "",
          "type": "uint256"
        }
      ],
      "stateMutability": "view",
      "type": "function"
    },
    {
      "inputs": [],
      "name": "withdraw",
      "outputs": [],
      "stateMutability": "nonpayable",
      "type": "function"
    }
  ],
  "bytecode": "0x60806040526000600960006101000a81548160ff021916908315150217905550661ff973cafa8000600d55610d05600e5561029a600f556002601055600160115573617f2e2fd72fd9d5503197092ac168c91465e7f2601360006101000a81548173ffffffffffffffffffffffffffffffffffffffff021916908373ffffffffffffffffffffffffffffffffffffffff1602179055507378731d3ca6b7e34ac0f824c42a7cc18a495cabab601460006101000a81548173ffffffffffffffffffffffffffffffffffffffff021916908373ffffffffffffffffffffffffffffffffffffffff160217905550348015620000f757600080fd5b506040518060400160405280600981526020017f4d616420546573737400000000000000000000000000000000000000000000008152506040518060400160405280600281526020017f4d5400000000000000000000000000000000000000000000000000000000000081525081600290805190602001906200017c929190620002af565b50806003908051906020019062000195929190620002af565b50620001a6620001dc60201b60201c565b6000819055505050620001ce620001c2620001e160201b60201c565b620001e960201b60201c565b6001600c81905550620003c4565b600090565b600033905090565b6000600b60009054906101000a900473ffffffffffffffffffffffffffffffffffffffff16905081600b60006101000a81548173ffffffffffffffffffffffffffffffffffffffff021916908373ffffffffffffffffffffffffffffffffffffffff1602179055508173ffffffffffffffffffffffffffffffffffffffff168173ffffffffffffffffffffffffffffffffffffffff167f8be0079c531659141344cd1fd0a4f28419497f9722a3daafe3b4186f6b6457e060405160405180910390a35050565b828054620002bd906200035f565b90600052602060002090601f016020900481019282620002e157600085556200032d565b82601f10620002fc57805160ff19168380011785556200032d565b828001600101855582156200032d579182015b828111156200032c5782518255916020019190600101906200030f565b5b5090506200033c919062000340565b5090565b5b808211156200035b57600081600090555060010162000341565b5090565b600060028204905060018216806200037857607f821691505b602082108114156200038f576200038e62000395565b5b50919050565b7f4e487b7100000000000000000000000000000000000000000000000000000000600052602260045260246000fd5b61485d80620003d46000396000f3fe6080604052600436106102305760003560e01c80636817c76c1161012e5780639f18b4d2116100ab578063d5abeb011161006f578063d5abeb011461082e578063e985e9c514610859578063ec8bda8e14610896578063f2fde38b146108b2578063f3b3a9fa146108db57610230565b80639f18b4d214610737578063a22cb46514610762578063b32c56801461078b578063b88d4fde146107c8578063c87b56dd146107f157610230565b806384584d07116100f257806384584d071461066657806388ef00181461068f5780638da5cb5b146106b857806395652cfa146106e357806395d89b411461070c57610230565b80636817c76c1461059357806368428a1b146105be57806370a08231146105e9578063715018a614610626578063841718a61461063d57610230565b806323b872dd116101bc5780633ccfd60b116101805780633ccfd60b146104ae57806342842e0e146104c5578063457dbf21146104ee5780635ea1ef52146105195780636352211e1461055657610230565b806323b872dd146103d85780632a52a54a146104015780632db115441461043e5780632eb4a7ab1461045a5780633a73c58d1461048557610230565b8063081812fc11610203578063081812fc146102f1578063095ea7b31461032e578063105c55821461035757806318160ddd1461038257806323b80995146103ad57610230565b806301ffc9a71461023557806303d41eb61461027257806306fdde031461029d57806307f3dba8146102c8575b600080fd5b34801561024157600080fd5b5061025c60048036038101906102579190613675565b610906565b6040516102699190613ca3565b60405180910390f35b34801561027e57600080fd5b506102876109e8565b6040516102949190613f5b565b60405180910390f35b3480156102a957600080fd5b506102b26109ee565b6040516102bf9190613cd9565b60405180910390f35b3480156102d457600080fd5b506102ef60048036038101906102ea9190613623565b610a80565b005b3480156102fd57600080fd5b506103186004803603810190610313919061370c565b610aa5565b6040516103259190613c3c565b60405180910390f35b34801561033a57600080fd5b50610355600480360381019061035091906135e7565b610b21565b005b34801561036357600080fd5b5061036c610c26565b6040516103799190613f5b565b60405180910390f35b34801561038e57600080fd5b50610397610c2c565b6040516103a49190613f5b565b60405180910390f35b3480156103b957600080fd5b506103c2610c43565b6040516103cf9190613ca3565b60405180910390f35b3480156103e457600080fd5b506103ff60048036038101906103fa919061348d565b610c56565b005b34801561040d57600080fd5b5061042860048036038101906104239190613428565b610c66565b6040516104359190613f5b565b60405180910390f35b6104586004803603810190610453919061370c565b610c7e565b005b34801561046657600080fd5b5061046f610e60565b60405161047c9190613cbe565b60405180910390f35b34801561049157600080fd5b506104ac60048036038101906104a79190613623565b610e66565b005b3480156104ba57600080fd5b506104c3610e7a565b005b3480156104d157600080fd5b506104ec60048036038101906104e7919061348d565b611279565b005b3480156104fa57600080fd5b50610503611299565b6040516105109190613ca3565b60405180910390f35b34801561052557600080fd5b50610540600480360381019061053b9190613428565b6112ac565b60405161054d9190613f5b565b60405180910390f35b34801561056257600080fd5b5061057d6004803603810190610578919061370c565b6112f5565b60405161058a9190613c3c565b60405180910390f35b34801561059f57600080fd5b506105a861130b565b6040516105b59190613f5b565b60405180910390f35b3480156105ca57600080fd5b506105d3611311565b6040516105e09190613ca3565b60405180910390f35b3480156105f557600080fd5b50610610600480360381019061060b9190613428565b611324565b60405161061d9190613f5b565b60405180910390f35b34801561063257600080fd5b5061063b6113f4565b005b34801561064957600080fd5b50610664600480360381019061065f9190613623565b611408565b005b34801561067257600080fd5b5061068d6004803603810190610688919061364c565b61142d565b005b34801561069b57600080fd5b506106b660048036038101906106b19190613735565b611441565b005b3480156106c457600080fd5b506106cd61172d565b6040516106da9190613c3c565b60405180910390f35b3480156106ef57600080fd5b5061070a600480360381019061070591906136c7565b611757565b005b34801561071857600080fd5b50610721611775565b60405161072e9190613cd9565b60405180910390f35b34801561074357600080fd5b5061074c611807565b6040516107599190613f5b565b60405180910390f35b34801561076e57600080fd5b50610789600480360381019061078491906135ab565b61180d565b005b34801561079757600080fd5b506107b260048036038101906107ad9190613557565b611985565b6040516107bf9190613ca3565b60405180910390f35b3480156107d457600080fd5b506107ef60048036038101906107ea91906134dc565b6119c7565b005b3480156107fd57600080fd5b506108186004803603810190610813919061370c565b611a3f565b6040516108259190613cd9565b60405180910390f35b34801561083a57600080fd5b50610843611abb565b6040516108509190613f5b565b60405180910390f35b34801561086557600080fd5b50610880600480360381019061087b9190613451565b611ac1565b60405161088d9190613ca3565b60405180910390f35b6108b060048036038101906108ab9190613735565b611b55565b005b3480156108be57600080fd5b506108d960048036038101906108d49190613428565b611dfd565b005b3480156108e757600080fd5b506108f0611e81565b6040516108fd9190613f5b565b60405180910390f35b60007f80ac58cd000000000000000000000000000000000000000000000000000000007bffffffffffffffffffffffffffffffffffffffffffffffffffffffff1916827bffffffffffffffffffffffffffffffffffffffffffffffffffffffff191614806109d157507f5b5e139f000000000000000000000000000000000000000000000000000000007bffffffffffffffffffffffffffffffffffffffffffffffffffffffff1916827bffffffffffffffffffffffffffffffffffffffffffffffffffffffff1916145b806109e157506109e082611e87565b5b9050919050565b60175481565b6060600280546109fd90614230565b80601f0160208091040260200160405190810160405280929190818152602001828054610a2990614230565b8015610a765780601f10610a4b57610100808354040283529160200191610a76565b820191906000526020600020905b815481529060010190602001808311610a5957829003601f168201915b5050505050905090565b610a88611ef1565b80601660016101000a81548160ff02191690831515021790555050565b6000610ab082611f6f565b610ae6576040517fcf4700e400000000000000000000000000000000000000000000000000000000815260040160405180910390fd5b6006600083815260200190815260200160002060009054906101000a900473ffffffffffffffffffffffffffffffffffffffff169050919050565b6000610b2c826112f5565b90508073ffffffffffffffffffffffffffffffffffffffff168373ffffffffffffffffffffffffffffffffffffffff161415610b94576040517f943f7b8c00000000000000000000000000000000000000000000000000000000815260040160405180910390fd5b8073ffffffffffffffffffffffffffffffffffffffff16610bb3611fbd565b73ffffffffffffffffffffffffffffffffffffffff1614610c1657610bdf81610bda611fbd565b611ac1565b610c15576040517fcfb3b94200000000000000000000000000000000000000000000000000000000815260040160405180910390fd5b5b610c21838383611fc5565b505050565b60115481565b6000610c36612077565b6001546000540303905090565b601660019054906101000a900460ff1681565b610c6183838361207c565b505050565b60126020528060005260406000206000915090505481565b601660009054906101000a900460ff16610ccd576040517f08c379a0000000000000000000000000000000000000000000000000000000008152600401610cc490613e1b565b60405180910390fd5b80600e5481610cda610c2c565b610ce4919061405b565b1115610d25576040517f08c379a0000000000000000000000000000000000000000000000000000000008152600401610d1c90613d5b565b60405180910390fd5b6002600c541415610d6b576040517f08c379a0000000000000000000000000000000000000000000000000000000008152600401610d6290613edb565b60405180910390fd5b6002600c8190555060008211610db6576040517f08c379a0000000000000000000000000000000000000000000000000000000008152600401610dad90613f1b565b60405180910390fd5b601054821115610dfb576040517f08c379a0000000000000000000000000000000000000000000000000000000008152600401610df290613e9b565b60405180910390fd5b34600d5483610e0a91906140e2565b14610e4a576040517f08c379a0000000000000000000000000000000000000000000000000000000008152600401610e4190613d9b565b60405180910390fd5b610e543383612532565b6001600c819055505050565b60085481565b610e6e611ef1565b610e7781612550565b50565b6002600c541415610ec0576040517f08c379a0000000000000000000000000000000000000000000000000000000008152600401610eb790613edb565b60405180910390fd5b6002600c81905550601360009054906101000a900473ffffffffffffffffffffffffffffffffffffffff1673ffffffffffffffffffffffffffffffffffffffff163373ffffffffffffffffffffffffffffffffffffffff161480610f715750601460009054906101000a900473ffffffffffffffffffffffffffffffffffffffff1673ffffffffffffffffffffffffffffffffffffffff163373ffffffffffffffffffffffffffffffffffffffff16145b80610fae5750610f7f61172d565b73ffffffffffffffffffffffffffffffffffffffff163373ffffffffffffffffffffffffffffffffffffffff16145b610fed576040517f08c379a0000000000000000000000000000000000000000000000000000000008152600401610fe490613ddb565b60405180910390fd5b6000601360009054906101000a900473ffffffffffffffffffffffffffffffffffffffff1673ffffffffffffffffffffffffffffffffffffffff16605060644761103791906140b1565b61104191906140e2565b60405161104d90613c27565b60006040518083038185875af1925050503d806000811461108a576040519150601f19603f3d011682016040523d82523d6000602084013e61108f565b606091505b505090506000601460009054906101000a900473ffffffffffffffffffffffffffffffffffffffff1673ffffffffffffffffffffffffffffffffffffffff1660326064476110dd91906140b1565b6110e791906140e2565b6040516110f390613c27565b60006040518083038185875af1925050503d8060008114611130576040519150601f19603f3d011682016040523d82523d6000602084013e611135565b606091505b50509050600061114361172d565b73ffffffffffffffffffffffffffffffffffffffff164760405161116690613c27565b60006040518083038185875af1925050503d80600081146111a3576040519150601f19603f3d011682016040523d82523d6000602084013e6111a8565b606091505b50509050826111ec576040517f08c379a00000000000000000000000000000000000000000000000000000000081526004016111e390613dbb565b60405180910390fd5b8161122c576040517f08c379a000000000000000000000000000000000000000000000000000000000815260040161122390613e3b565b60405180910390fd5b8061126c576040517f08c379a000000000000000000000000000000000000000000000000000000000815260040161126390613cfb565b60405180910390fd5b5050506001600c81905550565b611294838383604051806020016040528060008152506119c7565b505050565b600960009054906101000a900460ff1681565b6000600a60008373ffffffffffffffffffffffffffffffffffffffff1673ffffffffffffffffffffffffffffffffffffffff168152602001908152602001600020549050919050565b60006113008261256d565b600001519050919050565b600d5481565b601660009054906101000a900460ff1681565b60008073ffffffffffffffffffffffffffffffffffffffff168273ffffffffffffffffffffffffffffffffffffffff16141561138c576040517f8f4eb60400000000000000000000000000000000000000000000000000000000815260040160405180910390fd5b600560008373ffffffffffffffffffffffffffffffffffffffff1673ffffffffffffffffffffffffffffffffffffffff16815260200190815260200160002060000160009054906101000a900467ffffffffffffffff1667ffffffffffffffff169050919050565b6113fc611ef1565b61140660006127f8565b565b611410611ef1565b80601660006101000a81548160ff02191690831515021790555050565b611435611ef1565b61143e816128be565b50565b600960009054906101000a900460ff16611490576040517f08c379a000000000000000000000000000000000000000000000000000000000815260040161148790613ebb565b60405180910390fd5b338161149c8282611985565b6114db576040517f08c379a00000000000000000000000000000000000000000000000000000000081526004016114d290613d1b565b60405180910390fd5b83600f54816114e8610c2c565b6114f2919061405b565b1115611533576040517f08c379a000000000000000000000000000000000000000000000000000000000815260040161152a90613dfb565b60405180910390fd5b6002600c541415611579576040517f08c379a000000000000000000000000000000000000000000000000000000000815260040161157090613edb565b60405180910390fd5b6002600c81905550600085116115c4576040517f08c379a00000000000000000000000000000000000000000000000000000000081526004016115bb90613f1b565b60405180910390fd5b600f54856017546115d5919061405b565b1115611616576040517f08c379a000000000000000000000000000000000000000000000000000000000815260040161160d90613f3b565b60405180910390fd5b60115485601260003373ffffffffffffffffffffffffffffffffffffffff1673ffffffffffffffffffffffffffffffffffffffff16815260200190815260200160002054611664919061405b565b11156116a5576040517f08c379a000000000000000000000000000000000000000000000000000000000815260040161169c90613e5b565b60405180910390fd5b84601760008282546116b7919061405b565b9250508190555084601260003373ffffffffffffffffffffffffffffffffffffffff1673ffffffffffffffffffffffffffffffffffffffff168152602001908152602001600020600082825461170d919061405b565b9250508190555061171e3386612532565b6001600c819055505050505050565b6000600b60009054906101000a900473ffffffffffffffffffffffffffffffffffffffff16905090565b61175f611ef1565b81816015919061177092919061317c565b505050565b60606003805461178490614230565b80601f01602080910402602001604051908101604052809291908181526020018280546117b090614230565b80156117fd5780601f106117d2576101008083540402835291602001916117fd565b820191906000526020600020905b8154815290600101906020018083116117e057829003601f168201915b5050505050905090565b60105481565b611815611fbd565b73ffffffffffffffffffffffffffffffffffffffff168273ffffffffffffffffffffffffffffffffffffffff16141561187a576040517fb06307db00000000000000000000000000000000000000000000000000000000815260040160405180910390fd5b8060076000611887611fbd565b73ffffffffffffffffffffffffffffffffffffffff1673ffffffffffffffffffffffffffffffffffffffff16815260200190815260200160002060008473ffffffffffffffffffffffffffffffffffffffff1673ffffffffffffffffffffffffffffffffffffffff16815260200190815260200160002060006101000a81548160ff0219169083151502179055508173ffffffffffffffffffffffffffffffffffffffff16611934611fbd565b73ffffffffffffffffffffffffffffffffffffffff167f17307eab39ab6107e8899845ad3d59bd9653f200f220920489ca2b5937696c31836040516119799190613ca3565b60405180910390a35050565b600080836040516020016119999190613bdd565b6040516020818303038152906040528051906020012090506119be8360085483612901565b91505092915050565b6119d284848461207c565b6119f18373ffffffffffffffffffffffffffffffffffffffff16612918565b15611a3957611a028484848461293b565b611a38576040517fd1a57ed600000000000000000000000000000000000000000000000000000000815260040160405180910390fd5b5b50505050565b6060611a4a82611f6f565b611a89576040517f08c379a0000000000000000000000000000000000000000000000000000000008152600401611a8090613efb565b60405180910390fd5b6015611a9483612a9b565b604051602001611aa5929190613bf8565b6040516020818303038152906040529050919050565b600e5481565b6000600760008473ffffffffffffffffffffffffffffffffffffffff1673ffffffffffffffffffffffffffffffffffffffff16815260200190815260200160002060008373ffffffffffffffffffffffffffffffffffffffff1673ffffffffffffffffffffffffffffffffffffffff16815260200190815260200160002060009054906101000a900460ff16905092915050565b600960009054906101000a900460ff16611ba4576040517f08c379a0000000000000000000000000000000000000000000000000000000008152600401611b9b90613ebb565b60405180910390fd5b601660019054906101000a900460ff16611bf3576040517f08c379a0000000000000000000000000000000000000000000000000000000008152600401611bea90613e1b565b60405180910390fd5b3381611bff8282611985565b611c3e576040517f08c379a0000000000000000000000000000000000000000000000000000000008152600401611c3590613d1b565b60405180910390fd5b33846010546000611c4e846112ac565b9050818382611c5d919061405b565b1115611c9e576040517f08c379a0000000000000000000000000000000000000000000000000000000008152600401611c9590613d7b565b60405180910390fd5b87600e5481611cab610c2c565b611cb5919061405b565b1115611cf6576040517f08c379a0000000000000000000000000000000000000000000000000000000008152600401611ced90613d5b565b60405180910390fd5b6002600c541415611d3c576040517f08c379a0000000000000000000000000000000000000000000000000000000008152600401611d3390613edb565b60405180910390fd5b6002600c8190555060008911611d87576040517f08c379a0000000000000000000000000000000000000000000000000000000008152600401611d7e90613f1b565b60405180910390fd5b34600d548a611d9691906140e2565b14611dd6576040517f08c379a0000000000000000000000000000000000000000000000000000000008152600401611dcd90613d9b565b60405180910390fd5b611de0338a612c48565b611dea338a612532565b6001600c81905550505050505050505050565b611e05611ef1565b600073ffffffffffffffffffffffffffffffffffffffff168173ffffffffffffffffffffffffffffffffffffffff161415611e75576040517f08c379a0000000000000000000000000000000000000000000000000000000008152600401611e6c90613d3b565b60405180910390fd5b611e7e816127f8565b50565b600f5481565b60007f01ffc9a7000000000000000000000000000000000000000000000000000000007bffffffffffffffffffffffffffffffffffffffffffffffffffffffff1916827bffffffffffffffffffffffffffffffffffffffffffffffffffffffff1916149050919050565b611ef9611fbd565b73ffffffffffffffffffffffffffffffffffffffff16611f1761172d565b73ffffffffffffffffffffffffffffffffffffffff1614611f6d576040517f08c379a0000000000000000000000000000000000000000000000000000000008152600401611f6490613e7b565b60405180910390fd5b565b600081611f7a612077565b11158015611f89575060005482105b8015611fb6575060046000838152602001908152602001600020600001601c9054906101000a900460ff16155b9050919050565b600033905090565b826006600084815260200190815260200160002060006101000a81548173ffffffffffffffffffffffffffffffffffffffff021916908373ffffffffffffffffffffffffffffffffffffffff160217905550818373ffffffffffffffffffffffffffffffffffffffff168273ffffffffffffffffffffffffffffffffffffffff167f8c5be1e5ebec7d5bd14f71427d1e84f3dd0314c0f7b2291e5b200ac8c7c3b92560405160405180910390a4505050565b600090565b60006120878261256d565b90508373ffffffffffffffffffffffffffffffffffffffff16816000015173ffffffffffffffffffffffffffffffffffffffff16146120f2576040517fa114810000000000000000000000000000000000000000000000000000000000815260040160405180910390fd5b60008473ffffffffffffffffffffffffffffffffffffffff16612113611fbd565b73ffffffffffffffffffffffffffffffffffffffff16148061214257506121418561213c611fbd565b611ac1565b5b806121875750612150611fbd565b73ffffffffffffffffffffffffffffffffffffffff1661216f84610aa5565b73ffffffffffffffffffffffffffffffffffffffff16145b9050806121c0576040517f59c896be00000000000000000000000000000000000000000000000000000000815260040160405180910390fd5b600073ffffffffffffffffffffffffffffffffffffffff168473ffffffffffffffffffffffffffffffffffffffff161415612227576040517fea553b3400000000000000000000000000000000000000000000000000000000815260040160405180910390fd5b6122348585856001612cf0565b61224060008487611fc5565b6001600560008773ffffffffffffffffffffffffffffffffffffffff1673ffffffffffffffffffffffffffffffffffffffff16815260200190815260200160002060000160008282829054906101000a900467ffffffffffffffff160392506101000a81548167ffffffffffffffff021916908367ffffffffffffffff1602179055506001600560008673ffffffffffffffffffffffffffffffffffffffff1673ffffffffffffffffffffffffffffffffffffffff16815260200190815260200160002060000160008282829054906101000a900467ffffffffffffffff160192506101000a81548167ffffffffffffffff021916908367ffffffffffffffff1602179055506000600460008581526020019081526020016000209050848160000160006101000a81548173ffffffffffffffffffffffffffffffffffffffff021916908373ffffffffffffffffffffffffffffffffffffffff160217905550428160000160146101000a81548167ffffffffffffffff021916908367ffffffffffffffff16021790555060006001850190506000600460008381526020019081526020016000209050600073ffffffffffffffffffffffffffffffffffffffff168160000160009054906101000a900473ffffffffffffffffffffffffffffffffffffffff1673ffffffffffffffffffffffffffffffffffffffff1614156124c05760005482146124bf57878160000160006101000a81548173ffffffffffffffffffffffffffffffffffffffff021916908373ffffffffffffffffffffffffffffffffffffffff16021790555084602001518160000160146101000a81548167ffffffffffffffff021916908367ffffffffffffffff1602179055505b5b505050828473ffffffffffffffffffffffffffffffffffffffff168673ffffffffffffffffffffffffffffffffffffffff167fddf252ad1be2c89b69c2b068fc378daa952ba7f163c4a11628f55a4df523b3ef60405160405180910390a461252b8585856001612cf6565b5050505050565b61254c828260405180602001604052806000815250612cfc565b5050565b80600960006101000a81548160ff02191690831515021790555050565b612575613202565b600082905080612583612077565b116127c1576000548110156127c0576000600460008381526020019081526020016000206040518060600160405290816000820160009054906101000a900473ffffffffffffffffffffffffffffffffffffffff1673ffffffffffffffffffffffffffffffffffffffff1673ffffffffffffffffffffffffffffffffffffffff1681526020016000820160149054906101000a900467ffffffffffffffff1667ffffffffffffffff1667ffffffffffffffff16815260200160008201601c9054906101000a900460ff161515151581525050905080604001516127be57600073ffffffffffffffffffffffffffffffffffffffff16816000015173ffffffffffffffffffffffffffffffffffffffff16146126a25780925050506127f3565b5b6001156127bd57818060019003925050600460008381526020019081526020016000206040518060600160405290816000820160009054906101000a900473ffffffffffffffffffffffffffffffffffffffff1673ffffffffffffffffffffffffffffffffffffffff1673ffffffffffffffffffffffffffffffffffffffff1681526020016000820160149054906101000a900467ffffffffffffffff1667ffffffffffffffff1667ffffffffffffffff16815260200160008201601c9054906101000a900460ff1615151515815250509050600073ffffffffffffffffffffffffffffffffffffffff16816000015173ffffffffffffffffffffffffffffffffffffffff16146127b85780925050506127f3565b6126a3565b5b505b5b6040517fdf2d9b4200000000000000000000000000000000000000000000000000000000815260040160405180910390fd5b919050565b6000600b60009054906101000a900473ffffffffffffffffffffffffffffffffffffffff16905081600b60006101000a81548173ffffffffffffffffffffffffffffffffffffffff021916908373ffffffffffffffffffffffffffffffffffffffff1602179055508173ffffffffffffffffffffffffffffffffffffffff168173ffffffffffffffffffffffffffffffffffffffff167f8be0079c531659141344cd1fd0a4f28419497f9722a3daafe3b4186f6b6457e060405160405180910390a35050565b806008819055507f1b930366dfeaa7eb3b325021e4ae81e36527063452ee55b86c95f85b36f4c31c6008546040516128f69190613cbe565b60405180910390a150565b60008261290e85846130be565b1490509392505050565b6000808273ffffffffffffffffffffffffffffffffffffffff163b119050919050565b60008373ffffffffffffffffffffffffffffffffffffffff1663150b7a02612961611fbd565b8786866040518563ffffffff1660e01b81526004016129839493929190613c57565b602060405180830381600087803b15801561299d57600080fd5b505af19250505080156129ce57506040513d601f19601f820116820180604052508101906129cb919061369e565b60015b612a48573d80600081146129fe576040519150601f19603f3d011682016040523d82523d6000602084013e612a03565b606091505b50600081511415612a40576040517fd1a57ed600000000000000000000000000000000000000000000000000000000815260040160405180910390fd5b805181602001fd5b63150b7a0260e01b7bffffffffffffffffffffffffffffffffffffffffffffffffffffffff1916817bffffffffffffffffffffffffffffffffffffffffffffffffffffffff191614915050949350505050565b60606000821415612ae3576040518060400160405280600181526020017f30000000000000000000000000000000000000000000000000000000000000008152509050612c43565b600082905060005b60008214612b15578080612afe90614293565b915050600a82612b0e91906140b1565b9150612aeb565b60008167ffffffffffffffff811115612b57577f4e487b7100000000000000000000000000000000000000000000000000000000600052604160045260246000fd5b6040519080825280601f01601f191660200182016040528015612b895781602001600182028036833780820191505090505b5090505b60008514612c3c57600182612ba2919061413c565b9150600a85612bb19190614300565b6030612bbd919061405b565b60f81b818381518110612bf9577f4e487b7100000000000000000000000000000000000000000000000000000000600052603260045260246000fd5b60200101907effffffffffffffffffffffffffffffffffffffffffffffffffffffffffffff1916908160001a905350600a85612c3591906140b1565b9450612b8d565b8093505050505b919050565b80600a60008473ffffffffffffffffffffffffffffffffffffffff1673ffffffffffffffffffffffffffffffffffffffff1681526020019081526020016000206000828254612c97919061405b565b925050819055508173ffffffffffffffffffffffffffffffffffffffff167fd8138f8a3f377c5259ca548e70e4c2de94f129f5a11036a15b69513cba2b426a82604051612ce49190613f5b565b60405180910390a25050565b50505050565b50505050565b600080549050600073ffffffffffffffffffffffffffffffffffffffff168473ffffffffffffffffffffffffffffffffffffffff161415612d69576040517f2e07630000000000000000000000000000000000000000000000000000000000815260040160405180910390fd5b6000831415612da4576040517fb562e8dd00000000000000000000000000000000000000000000000000000000815260040160405180910390fd5b612db16000858386612cf0565b82600560008673ffffffffffffffffffffffffffffffffffffffff1673ffffffffffffffffffffffffffffffffffffffff16815260200190815260200160002060000160008282829054906101000a900467ffffffffffffffff160192506101000a81548167ffffffffffffffff021916908367ffffffffffffffff16021790555082600560008673ffffffffffffffffffffffffffffffffffffffff1673ffffffffffffffffffffffffffffffffffffffff16815260200190815260200160002060000160088282829054906101000a900467ffffffffffffffff160192506101000a81548167ffffffffffffffff021916908367ffffffffffffffff160217905550836004600083815260200190815260200160002060000160006101000a81548173ffffffffffffffffffffffffffffffffffffffff021916908373ffffffffffffffffffffffffffffffffffffffff160217905550426004600083815260200190815260200160002060000160146101000a81548167ffffffffffffffff021916908367ffffffffffffffff160217905550600081905060008482019050612f728673ffffffffffffffffffffffffffffffffffffffff16612918565b15613037575b818673ffffffffffffffffffffffffffffffffffffffff16600073ffffffffffffffffffffffffffffffffffffffff167fddf252ad1be2c89b69c2b068fc378daa952ba7f163c4a11628f55a4df523b3ef60405160405180910390a4612fe7600087848060010195508761293b565b61301d576040517fd1a57ed600000000000000000000000000000000000000000000000000000000815260040160405180910390fd5b808210612f7857826000541461303257600080fd5b6130a2565b5b818060010192508673ffffffffffffffffffffffffffffffffffffffff16600073ffffffffffffffffffffffffffffffffffffffff167fddf252ad1be2c89b69c2b068fc378daa952ba7f163c4a11628f55a4df523b3ef60405160405180910390a4808210613038575b8160008190555050506130b86000858386612cf6565b50505050565b60008082905060005b845181101561312f5761311a8286838151811061310d577f4e487b7100000000000000000000000000000000000000000000000000000000600052603260045260246000fd5b602002602001015161313a565b9150808061312790614293565b9150506130c7565b508091505092915050565b60008183106131525761314d8284613165565b61315d565b61315c8383613165565b5b905092915050565b600082600052816020526040600020905092915050565b82805461318890614230565b90600052602060002090601f0160209004810192826131aa57600085556131f1565b82601f106131c357803560ff19168380011785556131f1565b828001600101855582156131f1579182015b828111156131f05782358255916020019190600101906131d5565b5b5090506131fe9190613245565b5090565b6040518060600160405280600073ffffffffffffffffffffffffffffffffffffffff168152602001600067ffffffffffffffff1681526020016000151581525090565b5b8082111561325e576000816000905550600101613246565b5090565b600061327561327084613f9b565b613f76565b9050808382526020820190508285602086028201111561329457600080fd5b60005b858110156132c457816132aa8882613360565b845260208401935060208301925050600181019050613297565b5050509392505050565b60006132e16132dc84613fc7565b613f76565b9050828152602081018484840111156132f957600080fd5b6133048482856141ee565b509392505050565b60008135905061331b816147b4565b92915050565b600082601f83011261333257600080fd5b8135613342848260208601613262565b91505092915050565b60008135905061335a816147cb565b92915050565b60008135905061336f816147e2565b92915050565b600081359050613384816147f9565b92915050565b600081519050613399816147f9565b92915050565b600082601f8301126133b057600080fd5b81356133c08482602086016132ce565b91505092915050565b60008083601f8401126133db57600080fd5b8235905067ffffffffffffffff8111156133f457600080fd5b60208301915083600182028301111561340c57600080fd5b9250929050565b60008135905061342281614810565b92915050565b60006020828403121561343a57600080fd5b60006134488482850161330c565b91505092915050565b6000806040838503121561346457600080fd5b60006134728582860161330c565b92505060206134838582860161330c565b9150509250929050565b6000806000606084860312156134a257600080fd5b60006134b08682870161330c565b93505060206134c18682870161330c565b92505060406134d286828701613413565b9150509250925092565b600080600080608085870312156134f257600080fd5b60006135008782880161330c565b94505060206135118782880161330c565b935050604061352287828801613413565b925050606085013567ffffffffffffffff81111561353f57600080fd5b61354b8782880161339f565b91505092959194509250565b6000806040838503121561356a57600080fd5b60006135788582860161330c565b925050602083013567ffffffffffffffff81111561359557600080fd5b6135a185828601613321565b9150509250929050565b600080604083850312156135be57600080fd5b60006135cc8582860161330c565b92505060206135dd8582860161334b565b9150509250929050565b600080604083850312156135fa57600080fd5b60006136088582860161330c565b925050602061361985828601613413565b9150509250929050565b60006020828403121561363557600080fd5b60006136438482850161334b565b91505092915050565b60006020828403121561365e57600080fd5b600061366c84828501613360565b91505092915050565b60006020828403121561368757600080fd5b600061369584828501613375565b91505092915050565b6000602082840312156136b057600080fd5b60006136be8482850161338a565b91505092915050565b600080602083850312156136da57600080fd5b600083013567ffffffffffffffff8111156136f457600080fd5b613700858286016133c9565b92509250509250929050565b60006020828403121561371e57600080fd5b600061372c84828501613413565b91505092915050565b6000806040838503121561374857600080fd5b600061375685828601613413565b925050602083013567ffffffffffffffff81111561377357600080fd5b61377f85828601613321565b9150509250929050565b61379281614170565b82525050565b6137a96137a482614170565b6142dc565b82525050565b6137b881614182565b82525050565b6137c78161418e565b82525050565b60006137d88261400d565b6137e28185614023565b93506137f28185602086016141fd565b6137fb816143ed565b840191505092915050565b600061381182614018565b61381b818561403f565b935061382b8185602086016141fd565b613834816143ed565b840191505092915050565b600061384a82614018565b6138548185614050565b93506138648185602086016141fd565b80840191505092915050565b6000815461387d81614230565b6138878186614050565b945060018216600081146138a257600181146138b3576138e6565b60ff198316865281860193506138e6565b6138bc85613ff8565b60005b838110156138de578154818901526001820191506020810190506138bf565b838801955050505b50505092915050565b60006138fc60118361403f565b91506139078261440b565b602082019050919050565b600061391f60118361403f565b915061392a82614434565b602082019050919050565b600061394260268361403f565b915061394d8261445d565b604082019050919050565b600061396560208361403f565b9150613970826144ac565b602082019050919050565b6000613988602f8361403f565b9150613993826144d5565b604082019050919050565b60006139ab601f8361403f565b91506139b682614524565b602082019050919050565b60006139ce60118361403f565b91506139d98261454d565b602082019050919050565b60006139f1600e8361403f565b91506139fc82614576565b602082019050919050565b6000613a1460228361403f565b9150613a1f8261459f565b604082019050919050565b6000613a3760198361403f565b9150613a42826145ee565b602082019050919050565b6000613a5a60118361403f565b9150613a6582614617565b602082019050919050565b6000613a7d600583614050565b9150613a8882614640565b600582019050919050565b6000613aa060118361403f565b9150613aab82614669565b602082019050919050565b6000613ac360208361403f565b9150613ace82614692565b602082019050919050565b6000613ae6601b8361403f565b9150613af1826146bb565b602082019050919050565b6000613b09600083614034565b9150613b14826146e4565b600082019050919050565b6000613b2c60188361403f565b9150613b37826146e7565b602082019050919050565b6000613b4f601f8361403f565b9150613b5a82614710565b602082019050919050565b6000613b7260158361403f565b9150613b7d82614739565b602082019050919050565b6000613b9560168361403f565b9150613ba082614762565b602082019050919050565b6000613bb860168361403f565b9150613bc38261478b565b602082019050919050565b613bd7816141e4565b82525050565b6000613be98284613798565b60148201915081905092915050565b6000613c048285613870565b9150613c10828461383f565b9150613c1b82613a70565b91508190509392505050565b6000613c3282613afc565b9150819050919050565b6000602082019050613c516000830184613789565b92915050565b6000608082019050613c6c6000830187613789565b613c796020830186613789565b613c866040830185613bce565b8181036060830152613c9881846137cd565b905095945050505050565b6000602082019050613cb860008301846137af565b92915050565b6000602082019050613cd360008301846137be565b92915050565b60006020820190508181036000830152613cf38184613806565b905092915050565b60006020820190508181036000830152613d14816138ef565b9050919050565b60006020820190508181036000830152613d3481613912565b9050919050565b60006020820190508181036000830152613d5481613935565b9050919050565b60006020820190508181036000830152613d7481613958565b9050919050565b60006020820190508181036000830152613d948161397b565b9050919050565b60006020820190508181036000830152613db48161399e565b9050919050565b60006020820190508181036000830152613dd4816139c1565b9050919050565b60006020820190508181036000830152613df4816139e4565b9050919050565b60006020820190508181036000830152613e1481613a07565b9050919050565b60006020820190508181036000830152613e3481613a2a565b9050919050565b60006020820190508181036000830152613e5481613a4d565b9050919050565b60006020820190508181036000830152613e7481613a93565b9050919050565b60006020820190508181036000830152613e9481613ab6565b9050919050565b60006020820190508181036000830152613eb481613ad9565b9050919050565b60006020820190508181036000830152613ed481613b1f565b9050919050565b60006020820190508181036000830152613ef481613b42565b9050919050565b60006020820190508181036000830152613f1481613b65565b9050919050565b60006020820190508181036000830152613f3481613b88565b9050919050565b60006020820190508181036000830152613f5481613bab565b9050919050565b6000602082019050613f706000830184613bce565b92915050565b6000613f80613f91565b9050613f8c8282614262565b919050565b6000604051905090565b600067ffffffffffffffff821115613fb657613fb56143be565b5b602082029050602081019050919050565b600067ffffffffffffffff821115613fe257613fe16143be565b5b613feb826143ed565b9050602081019050919050565b60008190508160005260206000209050919050565b600081519050919050565b600081519050919050565b600082825260208201905092915050565b600081905092915050565b600082825260208201905092915050565b600081905092915050565b6000614066826141e4565b9150614071836141e4565b9250827fffffffffffffffffffffffffffffffffffffffffffffffffffffffffffffffff038211156140a6576140a5614331565b5b828201905092915050565b60006140bc826141e4565b91506140c7836141e4565b9250826140d7576140d6614360565b5b828204905092915050565b60006140ed826141e4565b91506140f8836141e4565b9250817fffffffffffffffffffffffffffffffffffffffffffffffffffffffffffffffff048311821515161561413157614130614331565b5b828202905092915050565b6000614147826141e4565b9150614152836141e4565b92508282101561416557614164614331565b5b828203905092915050565b600061417b826141c4565b9050919050565b60008115159050919050565b6000819050919050565b60007fffffffff0000000000000000000000000000000000000000000000000000000082169050919050565b600073ffffffffffffffffffffffffffffffffffffffff82169050919050565b6000819050919050565b82818337600083830152505050565b60005b8381101561421b578082015181840152602081019050614200565b8381111561422a576000848401525b50505050565b6000600282049050600182168061424857607f821691505b6020821081141561425c5761425b61438f565b5b50919050565b61426b826143ed565b810181811067ffffffffffffffff8211171561428a576142896143be565b5b80604052505050565b600061429e826141e4565b91507fffffffffffffffffffffffffffffffffffffffffffffffffffffffffffffffff8214156142d1576142d0614331565b5b600182019050919050565b60006142e7826142ee565b9050919050565b60006142f9826143fe565b9050919050565b600061430b826141e4565b9150614316836141e4565b92508261432657614325614360565b5b828206905092915050565b7f4e487b7100000000000000000000000000000000000000000000000000000000600052601160045260246000fd5b7f4e487b7100000000000000000000000000000000000000000000000000000000600052601260045260246000fd5b7f4e487b7100000000000000000000000000000000000000000000000000000000600052602260045260246000fd5b7f4e487b7100000000000000000000000000000000000000000000000000000000600052604160045260246000fd5b6000601f19601f8301169050919050565b60008160601b9050919050565b7f5472616e736665722033206661696c6564000000000000000000000000000000600082015250565b7f4e6f74206f6e20616c6c6f77206c697374000000000000000000000000000000600082015250565b7f4f776e61626c653a206e6577206f776e657220697320746865207a65726f206160008201527f6464726573730000000000000000000000000000000000000000000000000000602082015250565b7f507572636861736520776f756c6420657863656564206d617820746f6b656e73600082015250565b7f507572636861736520776f756c6420657863656564206e756d626572206f662060008201527f746f6b656e7320616c6c6f747465640000000000000000000000000000000000602082015250565b7f45746865722076616c75652073656e74206973206e6f7420636f727265637400600082015250565b7f5472616e736665722031206661696c6564000000000000000000000000000000600082015250565b7f496e76616c69642073656e646572000000000000000000000000000000000000600082015250565b7f507572636861736520776f756c6420657863656564206d61782072657365727360008201527f6572000000000000000000000000000000000000000000000000000000000000602082015250565b7f5075626c69632073616c65206973206e6f742061637469766500000000000000600082015250565b7f5472616e736665722032206661696c6564000000000000000000000000000000600082015250565b7f2e6a736f6e000000000000000000000000000000000000000000000000000000600082015250565b7f657863656564206d61782077616c6c6574000000000000000000000000000000600082015250565b7f4f776e61626c653a2063616c6c6572206973206e6f7420746865206f776e6572600082015250565b7f4578636565646564206d617820746f6b656e2070757263686173650000000000600082015250565b50565b7f416c6c6f77206c697374206973206e6f74206163746976650000000000000000600082015250565b7f5265656e7472616e637947756172643a207265656e7472616e742063616c6c00600082015250565b7f546f6b656e20646f6573206e6f74206578697374210000000000000000000000600082015250565b7f4d757374206d696e74206174206c65617374206f6e6500000000000000000000600082015250565b7f6d696e746564206f757420564950207265736572766500000000000000000000600082015250565b6147bd81614170565b81146147c857600080fd5b50565b6147d481614182565b81146147df57600080fd5b50565b6147eb8161418e565b81146147f657600080fd5b50565b61480281614198565b811461480d57600080fd5b50565b614819816141e4565b811461482457600080fd5b5056fea2646970667358221220412ef386a5b93a41abd33c8cf04fd521a2ca5a27223b1a3ef932ab5fe1fed0ee64736f6c63430008040033",
  "linkReferences": {},
  "deployedLinkReferences": {}
}