{
  "_format": "hh-sol-artifact-1",
  "contractName": "MadTesst",
  "sourceName": "contracts/MadTesst.sol",
  "abi": [
    {
      "inputs": [],
      "stateMutability": "nonpayable",
      "type": "constructor"
    },
    {
      "inputs": [],
      "name": "ApprovalCallerNotOwnerNorApproved",
      "type": "error"
    },
    {
      "inputs": [],
      "name": "ApprovalQueryForNonexistentToken",
      "type": "error"
    },
    {
      "inputs": [],
      "name": "ApprovalToCurrentOwner",
      "type": "error"
    },
    {
      "inputs": [],
      "name": "ApproveToCaller",
      "type": "error"
    },
    {
      "inputs": [],
      "name": "BalanceQueryForZeroAddress",
      "type": "error"
    },
    {
      "inputs": [],
      "name": "MintToZeroAddress",
      "type": "error"
    },
    {
      "inputs": [],
      "name": "MintZeroQuantity",
      "type": "error"
    },
    {
      "inputs": [],
      "name": "OwnerQueryForNonexistentToken",
      "type": "error"
    },
    {
      "inputs": [],
      "name": "TransferCallerNotOwnerNorApproved",
      "type": "error"
    },
    {
      "inputs": [],
      "name": "TransferFromIncorrectOwner",
      "type": "error"
    },
    {
      "inputs": [],
      "name": "TransferToNonERC721ReceiverImplementer",
      "type": "error"
    },
    {
      "inputs": [],
      "name": "TransferToZeroAddress",
      "type": "error"
    },
    {
      "inputs": [],
      "name": "URIQueryForNonexistentToken",
      "type": "error"
    },
    {
      "anonymous": false,
      "inputs": [
        {
          "indexed": true,
          "internalType": "address",
          "name": "owner",
          "type": "address"
        },
        {
          "indexed": true,
          "internalType": "address",
          "name": "approved",
          "type": "address"
        },
        {
          "indexed": true,
          "internalType": "uint256",
          "name": "tokenId",
          "type": "uint256"
        }
      ],
      "name": "Approval",
      "type": "event"
    },
    {
      "anonymous": false,
      "inputs": [
        {
          "indexed": true,
          "internalType": "address",
          "name": "owner",
          "type": "address"
        },
        {
          "indexed": true,
          "internalType": "address",
          "name": "operator",
          "type": "address"
        },
        {
          "indexed": false,
          "internalType": "bool",
          "name": "approved",
          "type": "bool"
        }
      ],
      "name": "ApprovalForAll",
      "type": "event"
    },
    {
      "anonymous": false,
      "inputs": [
        {
          "indexed": true,
          "internalType": "address",
          "name": "account",
          "type": "address"
        },
        {
          "indexed": false,
          "internalType": "uint256",
          "name": "amount",
          "type": "uint256"
        }
      ],
      "name": "Claimed",
      "type": "event"
    },
    {
      "anonymous": false,
      "inputs": [
        {
          "indexed": false,
          "internalType": "bytes32",
          "name": "merkleRoot",
          "type": "bytes32"
        }
      ],
      "name": "MerkleRootChanged",
      "type": "event"
    },
    {
      "anonymous": false,
      "inputs": [
        {
          "indexed": true,
          "internalType": "address",
          "name": "previousOwner",
          "type": "address"
        },
        {
          "indexed": true,
          "internalType": "address",
          "name": "newOwner",
          "type": "address"
        }
      ],
      "name": "OwnershipTransferred",
      "type": "event"
    },
    {
      "anonymous": false,
      "inputs": [
        {
          "indexed": true,
          "internalType": "address",
          "name": "from",
          "type": "address"
        },
        {
          "indexed": true,
          "internalType": "address",
          "name": "to",
          "type": "address"
        },
        {
          "indexed": true,
          "internalType": "uint256",
          "name": "tokenId",
          "type": "uint256"
        }
      ],
      "name": "Transfer",
      "type": "event"
    },
    {
      "inputs": [],
      "name": "allowListActive",
      "outputs": [
        {
          "internalType": "bool",
          "name": "",
          "type": "bool"
        }
      ],
      "stateMutability": "view",
      "type": "function"
    },
    {
      "inputs": [
        {
          "internalType": "uint256",
          "name": "numberOfTokens",
          "type": "uint256"
        },
        {
          "internalType": "bytes32[]",
          "name": "merkleProof",
          "type": "bytes32[]"
        }
      ],
      "name": "allowListMint",
      "outputs": [],
      "stateMutability": "payable",
      "type": "function"
    },
    {
      "inputs": [
        {
          "internalType": "address",
          "name": "to",
          "type": "address"
        },
        {
          "internalType": "uint256",
          "name": "tokenId",
          "type": "uint256"
        }
      ],
      "name": "approve",
      "outputs": [],
      "stateMutability": "nonpayable",
      "type": "function"
    },
    {
      "inputs": [
        {
          "internalType": "address",
          "name": "owner",
          "type": "address"
        }
      ],
      "name": "balanceOf",
      "outputs": [
        {
          "internalType": "uint256",
          "name": "",
          "type": "uint256"
        }
      ],
      "stateMutability": "view",
      "type": "function"
    },
    {
      "inputs": [
        {
          "internalType": "uint256",
          "name": "numberOfTokens",
          "type": "uint256"
        }
      ],
      "name": "devMint",
      "outputs": [],
      "stateMutability": "nonpayable",
      "type": "function"
    },
    {
      "inputs": [],
      "name": "devSupply",
      "outputs": [
        {
          "internalType": "uint256",
          "name": "",
          "type": "uint256"
        }
      ],
      "stateMutability": "view",
      "type": "function"
    },
    {
      "inputs": [
        {
          "internalType": "address",
          "name": "from",
          "type": "address"
        }
      ],
      "name": "getAllowListMinted",
      "outputs": [
        {
          "internalType": "uint256",
          "name": "",
          "type": "uint256"
        }
      ],
      "stateMutability": "view",
      "type": "function"
    },
    {
      "inputs": [
        {
          "internalType": "uint256",
          "name": "tokenId",
          "type": "uint256"
        }
      ],
      "name": "getApproved",
      "outputs": [
        {
          "internalType": "address",
          "name": "",
          "type": "address"
        }
      ],
      "stateMutability": "view",
      "type": "function"
    },
    {
      "inputs": [
        {
          "internalType": "address",
          "name": "owner",
          "type": "address"
        },
        {
          "internalType": "address",
          "name": "operator",
          "type": "address"
        }
      ],
      "name": "isApprovedForAll",
      "outputs": [
        {
          "internalType": "bool",
          "name": "",
          "type": "bool"
        }
      ],
      "stateMutability": "view",
      "type": "function"
    },
    {
      "inputs": [],
      "name": "maxAllow",
      "outputs": [
        {
          "internalType": "uint256",
          "name": "",
          "type": "uint256"
        }
      ],
      "stateMutability": "view",
      "type": "function"
    },
    {
      "inputs": [],
      "name": "maxDev",
      "outputs": [
        {
          "internalType": "uint256",
          "name": "",
          "type": "uint256"
        }
      ],
      "stateMutability": "view",
      "type": "function"
    },
    {
      "inputs": [],
      "name": "maxPublic",
      "outputs": [
        {
          "internalType": "uint256",
          "name": "",
          "type": "uint256"
        }
      ],
      "stateMutability": "view",
      "type": "function"
    },
    {
      "inputs": [],
      "name": "maxReserve",
      "outputs": [
        {
          "internalType": "uint256",
          "name": "",
          "type": "uint256"
        }
      ],
      "stateMutability": "view",
      "type": "function"
    },
    {
      "inputs": [],
      "name": "maxSupply",
      "outputs": [
        {
          "internalType": "uint256",
          "name": "",
          "type": "uint256"
        }
      ],
      "stateMutability": "view",
      "type": "function"
    },
    {
      "inputs": [],
      "name": "maxVip",
      "outputs": [
        {
          "internalType": "uint256",
          "name": "",
          "type": "uint256"
        }
      ],
      "stateMutability": "view",
      "type": "function"
    },
    {
      "inputs": [],
      "name": "merkleRoot",
      "outputs": [
        {
          "internalType": "bytes32",
          "name": "",
          "type": "bytes32"
        }
      ],
      "stateMutability": "view",
      "type": "function"
    },
    {
      "inputs": [],
      "name": "mintPrice",
      "outputs": [
        {
          "internalType": "uint256",
          "name": "",
          "type": "uint256"
        }
      ],
      "stateMutability": "view",
      "type": "function"
    },
    {
      "inputs": [],
      "name": "name",
      "outputs": [
        {
          "internalType": "string",
          "name": "",
          "type": "string"
        }
      ],
      "stateMutability": "view",
      "type": "function"
    },
    {
      "inputs": [
        {
          "internalType": "address",
          "name": "claimer",
          "type": "address"
        },
        {
          "internalType": "bytes32[]",
          "name": "proof",
          "type": "bytes32[]"
        }
      ],
      "name": "onAllowList",
      "outputs": [
        {
          "internalType": "bool",
          "name": "",
          "type": "bool"
        }
      ],
      "stateMutability": "view",
      "type": "function"
    },
    {
      "inputs": [],
      "name": "owner",
      "outputs": [
        {
          "internalType": "address",
          "name": "",
          "type": "address"
        }
      ],
      "stateMutability": "view",
      "type": "function"
    },
    {
      "inputs": [
        {
          "internalType": "uint256",
          "name": "tokenId",
          "type": "uint256"
        }
      ],
      "name": "ownerOf",
      "outputs": [
        {
          "internalType": "address",
          "name": "",
          "type": "address"
        }
      ],
      "stateMutability": "view",
      "type": "function"
    },
    {
      "inputs": [
        {
          "internalType": "uint256",
          "name": "numberOfTokens",
          "type": "uint256"
        }
      ],
      "name": "publicMint",
      "outputs": [],
      "stateMutability": "payable",
      "type": "function"
    },
    {
      "inputs": [],
      "name": "renounceOwnership",
      "outputs": [],
      "stateMutability": "nonpayable",
      "type": "function"
    },
    {
      "inputs": [],
      "name": "reserveSupply",
      "outputs": [
        {
          "internalType": "uint256",
          "name": "",
          "type": "uint256"
        }
      ],
      "stateMutability": "view",
      "type": "function"
    },
    {
      "inputs": [
        {
          "internalType": "address",
          "name": "from",
          "type": "address"
        },
        {
          "internalType": "address",
          "name": "to",
          "type": "address"
        },
        {
          "internalType": "uint256",
          "name": "tokenId",
          "type": "uint256"
        }
      ],
      "name": "safeTransferFrom",
      "outputs": [],
      "stateMutability": "nonpayable",
      "type": "function"
    },
    {
      "inputs": [
        {
          "internalType": "address",
          "name": "from",
          "type": "address"
        },
        {
          "internalType": "address",
          "name": "to",
          "type": "address"
        },
        {
          "internalType": "uint256",
          "name": "tokenId",
          "type": "uint256"
        },
        {
          "internalType": "bytes",
          "name": "_data",
          "type": "bytes"
        }
      ],
      "name": "safeTransferFrom",
      "outputs": [],
      "stateMutability": "nonpayable",
      "type": "function"
    },
    {
      "inputs": [],
      "name": "saleActive",
      "outputs": [
        {
          "internalType": "bool",
          "name": "",
          "type": "bool"
        }
      ],
      "stateMutability": "view",
      "type": "function"
    },
    {
      "inputs": [],
      "name": "saleOver",
      "outputs": [
        {
          "internalType": "bool",
          "name": "",
          "type": "bool"
        }
      ],
      "stateMutability": "view",
      "type": "function"
    },
    {
      "inputs": [
        {
          "internalType": "bytes32",
          "name": "merkleRoot",
          "type": "bytes32"
        }
      ],
      "name": "setAllowList",
      "outputs": [],
      "stateMutability": "nonpayable",
      "type": "function"
    },
    {
      "inputs": [
        {
          "internalType": "bool",
          "name": "allowListActive",
          "type": "bool"
        }
      ],
      "name": "setAllowListActive",
      "outputs": [],
      "stateMutability": "nonpayable",
      "type": "function"
    },
    {
      "inputs": [
        {
          "internalType": "address",
          "name": "operator",
          "type": "address"
        },
        {
          "internalType": "bool",
          "name": "approved",
          "type": "bool"
        }
      ],
      "name": "setApprovalForAll",
      "outputs": [],
      "stateMutability": "nonpayable",
      "type": "function"
    },
    {
      "inputs": [
        {
          "internalType": "string",
          "name": "baseTokenUri_",
          "type": "string"
        }
      ],
      "name": "setBaseTokenUri",
      "outputs": [],
      "stateMutability": "nonpayable",
      "type": "function"
    },
    {
      "inputs": [
        {
          "internalType": "bool",
          "name": "state",
          "type": "bool"
        }
      ],
      "name": "setSaleActive",
      "outputs": [],
      "stateMutability": "nonpayable",
      "type": "function"
    },
    {
      "inputs": [
        {
          "internalType": "bool",
          "name": "state",
          "type": "bool"
        }
      ],
      "name": "setVipSaleOver",
      "outputs": [],
      "stateMutability": "nonpayable",
      "type": "function"
    },
    {
      "inputs": [
        {
          "internalType": "bytes4",
          "name": "interfaceId",
          "type": "bytes4"
        }
      ],
      "name": "supportsInterface",
      "outputs": [
        {
          "internalType": "bool",
          "name": "",
          "type": "bool"
        }
      ],
      "stateMutability": "view",
      "type": "function"
    },
    {
      "inputs": [],
      "name": "symbol",
      "outputs": [
        {
          "internalType": "string",
          "name": "",
          "type": "string"
        }
      ],
      "stateMutability": "view",
      "type": "function"
    },
    {
      "inputs": [
        {
          "internalType": "uint256",
          "name": "tokenId",
          "type": "uint256"
        }
      ],
      "name": "tokenURI",
      "outputs": [
        {
          "internalType": "string",
          "name": "",
          "type": "string"
        }
      ],
      "stateMutability": "view",
      "type": "function"
    },
    {
      "inputs": [],
      "name": "totalSupply",
      "outputs": [
        {
          "internalType": "uint256",
          "name": "",
          "type": "uint256"
        }
      ],
      "stateMutability": "view",
      "type": "function"
    },
    {
      "inputs": [
        {
          "internalType": "address",
          "name": "from",
          "type": "address"
        },
        {
          "internalType": "address",
          "name": "to",
          "type": "address"
        },
        {
          "internalType": "uint256",
          "name": "tokenId",
          "type": "uint256"
        }
      ],
      "name": "transferFrom",
      "outputs": [],
      "stateMutability": "nonpayable",
      "type": "function"
    },
    {
      "inputs": [
        {
          "internalType": "address",
          "name": "newOwner",
          "type": "address"
        }
      ],
      "name": "transferOwnership",
      "outputs": [],
      "stateMutability": "nonpayable",
      "type": "function"
    },
    {
      "inputs": [
        {
          "internalType": "uint256",
          "name": "numberOfTokens",
          "type": "uint256"
        },
        {
          "internalType": "bytes32[]",
          "name": "merkleProof",
          "type": "bytes32[]"
        }
      ],
      "name": "vipMint",
      "outputs": [],
      "stateMutability": "nonpayable",
      "type": "function"
    },
    {
      "inputs": [
        {
          "internalType": "address",
          "name": "",
          "type": "address"
        }
      ],
      "name": "vipWalletMints",
      "outputs": [
        {
          "internalType": "uint256",
          "name": "",
          "type": "uint256"
        }
      ],
      "stateMutability": "view",
      "type": "function"
    },
    {
      "inputs": [],
      "name": "withdraw",
      "outputs": [],
      "stateMutability": "nonpayable",
      "type": "function"
    }
  ],
  "bytecode": "0x60806040526000600960006101000a81548160ff0219169083151502179055506603328b944c4000600d55610d05600e5561029a600f5561014d6010556103e8601155603c60125561014d6013557378731d3ca6b7e34ac0f824c42a7cc18a495cabab601560006101000a81548173ffffffffffffffffffffffffffffffffffffffff021916908373ffffffffffffffffffffffffffffffffffffffff1602179055507317f6ad8ef982297579c203069c1dbffe4348c372601660006101000a81548173ffffffffffffffffffffffffffffffffffffffff021916908373ffffffffffffffffffffffffffffffffffffffff1602179055503480156200010457600080fd5b506040518060400160405280600981526020017f4d616420546573737400000000000000000000000000000000000000000000008152506040518060400160405280600281526020017f4d54000000000000000000000000000000000000000000000000000000000000815250816002908051906020019062000189929190620002bc565b508060039080519060200190620001a2929190620002bc565b50620001b3620001e960201b60201c565b6000819055505050620001db620001cf620001ee60201b60201c565b620001f660201b60201c565b6001600c81905550620003d1565b600090565b600033905090565b6000600b60009054906101000a900473ffffffffffffffffffffffffffffffffffffffff16905081600b60006101000a81548173ffffffffffffffffffffffffffffffffffffffff021916908373ffffffffffffffffffffffffffffffffffffffff1602179055508173ffffffffffffffffffffffffffffffffffffffff168173ffffffffffffffffffffffffffffffffffffffff167f8be0079c531659141344cd1fd0a4f28419497f9722a3daafe3b4186f6b6457e060405160405180910390a35050565b828054620002ca906200036c565b90600052602060002090601f016020900481019282620002ee57600085556200033a565b82601f106200030957805160ff19168380011785556200033a565b828001600101855582156200033a579182015b82811115620003395782518255916020019190600101906200031c565b5b5090506200034991906200034d565b5090565b5b80821115620003685760008160009055506001016200034e565b5090565b600060028204905060018216806200038557607f821691505b602082108114156200039c576200039b620003a2565b5b50919050565b7f4e487b7100000000000000000000000000000000000000000000000000000000600052602260045260246000fd5b614b2380620003e16000396000f3fe60806040526004361061025c5760003560e01c80636352211e1161014457806395d89b41116100b6578063c87b56dd1161007a578063c87b56dd146108c7578063d5abeb0114610904578063e985e9c51461092f578063ec8bda8e1461096c578063f2fde38b14610988578063f3b3a9fa146109b15761025c565b806395d89b41146107e25780639f18b4d21461080d578063a22cb46514610838578063b32c568014610861578063b88d4fde1461089e5761025c565b80637dc42975116101085780637dc42975146106e8578063841718a61461071357806384584d071461073c57806388ef0018146107655780638da5cb5b1461078e57806395652cfa146107b95761025c565b80636352211e146106015780636817c76c1461063e57806368428a1b1461066957806370a0823114610694578063715018a6146106d15761025c565b80632a52a54a116101dd5780633ccfd60b116101a15780633ccfd60b1461050357806341c66d0a1461051a57806342842e0e1461054557806343a4ccee1461056e578063457dbf21146105995780635ea1ef52146105c45761025c565b80632a52a54a1461042d5780632db115441461046a5780632eb4a7ab14610486578063375a069a146104b15780633a73c58d146104da5761025c565b8063095ea7b311610224578063095ea7b31461035a578063105c55821461038357806318160ddd146103ae57806323b80995146103d957806323b872dd146104045761025c565b806301ffc9a71461026157806303d41eb61461029e57806306fdde03146102c957806307f3dba8146102f4578063081812fc1461031d575b600080fd5b34801561026d57600080fd5b50610288600480360381019061028391906138cf565b6109dc565b6040516102959190613f20565b60405180910390f35b3480156102aa57600080fd5b506102b3610abe565b6040516102c091906141f8565b60405180910390f35b3480156102d557600080fd5b506102de610ac4565b6040516102eb9190613f56565b60405180910390f35b34801561030057600080fd5b5061031b6004803603810190610316919061387d565b610b56565b005b34801561032957600080fd5b50610344600480360381019061033f9190613966565b610b7b565b6040516103519190613eb9565b60405180910390f35b34801561036657600080fd5b50610381600480360381019061037c9190613841565b610bf7565b005b34801561038f57600080fd5b50610398610cfc565b6040516103a591906141f8565b60405180910390f35b3480156103ba57600080fd5b506103c3610d02565b6040516103d091906141f8565b60405180910390f35b3480156103e557600080fd5b506103ee610d19565b6040516103fb9190613f20565b60405180910390f35b34801561041057600080fd5b5061042b600480360381019061042691906136e7565b610d2c565b005b34801561043957600080fd5b50610454600480360381019061044f9190613682565b610d3c565b60405161046191906141f8565b60405180910390f35b610484600480360381019061047f9190613966565b610d54565b005b34801561049257600080fd5b5061049b610f36565b6040516104a89190613f3b565b60405180910390f35b3480156104bd57600080fd5b506104d860048036038101906104d39190613966565b610f3c565b005b3480156104e657600080fd5b5061050160048036038101906104fc919061387d565b6110ae565b005b34801561050f57600080fd5b506105186110c2565b005b34801561052657600080fd5b5061052f6114c1565b60405161053c91906141f8565b60405180910390f35b34801561055157600080fd5b5061056c600480360381019061056791906136e7565b6114c7565b005b34801561057a57600080fd5b506105836114e7565b60405161059091906141f8565b60405180910390f35b3480156105a557600080fd5b506105ae6114ed565b6040516105bb9190613f20565b60405180910390f35b3480156105d057600080fd5b506105eb60048036038101906105e69190613682565b611500565b6040516105f891906141f8565b60405180910390f35b34801561060d57600080fd5b5061062860048036038101906106239190613966565b611549565b6040516106359190613eb9565b60405180910390f35b34801561064a57600080fd5b5061065361155f565b60405161066091906141f8565b60405180910390f35b34801561067557600080fd5b5061067e611565565b60405161068b9190613f20565b60405180910390f35b3480156106a057600080fd5b506106bb60048036038101906106b69190613682565b611578565b6040516106c891906141f8565b60405180910390f35b3480156106dd57600080fd5b506106e6611648565b005b3480156106f457600080fd5b506106fd61165c565b60405161070a91906141f8565b60405180910390f35b34801561071f57600080fd5b5061073a6004803603810190610735919061387d565b611662565b005b34801561074857600080fd5b50610763600480360381019061075e91906138a6565b611687565b005b34801561077157600080fd5b5061078c6004803603810190610787919061398f565b61169b565b005b34801561079a57600080fd5b506107a3611987565b6040516107b09190613eb9565b60405180910390f35b3480156107c557600080fd5b506107e060048036038101906107db9190613921565b6119b1565b005b3480156107ee57600080fd5b506107f76119cf565b6040516108049190613f56565b60405180910390f35b34801561081957600080fd5b50610822611a61565b60405161082f91906141f8565b60405180910390f35b34801561084457600080fd5b5061085f600480360381019061085a9190613805565b611a67565b005b34801561086d57600080fd5b50610888600480360381019061088391906137b1565b611bdf565b6040516108959190613f20565b60405180910390f35b3480156108aa57600080fd5b506108c560048036038101906108c09190613736565b611c21565b005b3480156108d357600080fd5b506108ee60048036038101906108e99190613966565b611c99565b6040516108fb9190613f56565b60405180910390f35b34801561091057600080fd5b50610919611d15565b60405161092691906141f8565b60405180910390f35b34801561093b57600080fd5b50610956600480360381019061095191906136ab565b611d1b565b6040516109639190613f20565b60405180910390f35b6109866004803603810190610981919061398f565b611daf565b005b34801561099457600080fd5b506109af60048036038101906109aa9190613682565b612057565b005b3480156109bd57600080fd5b506109c66120db565b6040516109d391906141f8565b60405180910390f35b60007f80ac58cd000000000000000000000000000000000000000000000000000000007bffffffffffffffffffffffffffffffffffffffffffffffffffffffff1916827bffffffffffffffffffffffffffffffffffffffffffffffffffffffff19161480610aa757507f5b5e139f000000000000000000000000000000000000000000000000000000007bffffffffffffffffffffffffffffffffffffffffffffffffffffffff1916827bffffffffffffffffffffffffffffffffffffffffffffffffffffffff1916145b80610ab75750610ab6826120e1565b5b9050919050565b60195481565b606060028054610ad3906144cd565b80601f0160208091040260200160405190810160405280929190818152602001828054610aff906144cd565b8015610b4c5780601f10610b2157610100808354040283529160200191610b4c565b820191906000526020600020905b815481529060010190602001808311610b2f57829003601f168201915b5050505050905090565b610b5e61214b565b80601860016101000a81548160ff02191690831515021790555050565b6000610b86826121c9565b610bbc576040517fcf4700e400000000000000000000000000000000000000000000000000000000815260040160405180910390fd5b6006600083815260200190815260200160002060009054906101000a900473ffffffffffffffffffffffffffffffffffffffff169050919050565b6000610c0282611549565b90508073ffffffffffffffffffffffffffffffffffffffff168373ffffffffffffffffffffffffffffffffffffffff161415610c6a576040517f943f7b8c00000000000000000000000000000000000000000000000000000000815260040160405180910390fd5b8073ffffffffffffffffffffffffffffffffffffffff16610c89612217565b73ffffffffffffffffffffffffffffffffffffffff1614610cec57610cb581610cb0612217565b611d1b565b610ceb576040517fcfb3b94200000000000000000000000000000000000000000000000000000000815260040160405180910390fd5b5b610cf783838361221f565b505050565b60135481565b6000610d0c6122d1565b6001546000540303905090565b601860019054906101000a900460ff1681565b610d378383836122d6565b505050565b60146020528060005260406000206000915090505481565b601860009054906101000a900460ff16610da3576040517f08c379a0000000000000000000000000000000000000000000000000000000008152600401610d9a906140b8565b60405180910390fd5b80600e5481610db0610d02565b610dba91906142f8565b1115610dfb576040517f08c379a0000000000000000000000000000000000000000000000000000000008152600401610df290613fd8565b60405180910390fd5b6002600c541415610e41576040517f08c379a0000000000000000000000000000000000000000000000000000000008152600401610e3890614178565b60405180910390fd5b6002600c8190555060008211610e8c576040517f08c379a0000000000000000000000000000000000000000000000000000000008152600401610e83906141b8565b60405180910390fd5b601254821115610ed1576040517f08c379a0000000000000000000000000000000000000000000000000000000008152600401610ec890614138565b60405180910390fd5b34600d5483610ee0919061437f565b14610f20576040517f08c379a0000000000000000000000000000000000000000000000000000000008152600401610f1790614038565b60405180910390fd5b610f2a338361278c565b6001600c819055505050565b60085481565b610f4461214b565b80600e5481610f51610d02565b610f5b91906142f8565b1115610f9c576040517f08c379a0000000000000000000000000000000000000000000000000000000008152600401610f9390613fd8565b60405180910390fd5b6002600c541415610fe2576040517f08c379a0000000000000000000000000000000000000000000000000000000008152600401610fd990614178565b60405180910390fd5b6002600c819055506000821161102d576040517f08c379a0000000000000000000000000000000000000000000000000000000008152600401611024906141b8565b60405180910390fd5b60105482601a5461103e91906142f8565b111561107f576040517f08c379a000000000000000000000000000000000000000000000000000000000815260040161107690613ff8565b60405180910390fd5b81601a600082825461109191906142f8565b925050819055506110a2338361278c565b6001600c819055505050565b6110b661214b565b6110bf816127aa565b50565b6002600c541415611108576040517f08c379a00000000000000000000000000000000000000000000000000000000081526004016110ff90614178565b60405180910390fd5b6002600c81905550601560009054906101000a900473ffffffffffffffffffffffffffffffffffffffff1673ffffffffffffffffffffffffffffffffffffffff163373ffffffffffffffffffffffffffffffffffffffff1614806111b95750601660009054906101000a900473ffffffffffffffffffffffffffffffffffffffff1673ffffffffffffffffffffffffffffffffffffffff163373ffffffffffffffffffffffffffffffffffffffff16145b806111f657506111c7611987565b73ffffffffffffffffffffffffffffffffffffffff163373ffffffffffffffffffffffffffffffffffffffff16145b611235576040517f08c379a000000000000000000000000000000000000000000000000000000000815260040161122c90614098565b60405180910390fd5b6000601560009054906101000a900473ffffffffffffffffffffffffffffffffffffffff1673ffffffffffffffffffffffffffffffffffffffff16605060644761127f919061434e565b611289919061437f565b60405161129590613ea4565b60006040518083038185875af1925050503d80600081146112d2576040519150601f19603f3d011682016040523d82523d6000602084013e6112d7565b606091505b505090506000601660009054906101000a900473ffffffffffffffffffffffffffffffffffffffff1673ffffffffffffffffffffffffffffffffffffffff166032606447611325919061434e565b61132f919061437f565b60405161133b90613ea4565b60006040518083038185875af1925050503d8060008114611378576040519150601f19603f3d011682016040523d82523d6000602084013e61137d565b606091505b50509050600061138b611987565b73ffffffffffffffffffffffffffffffffffffffff16476040516113ae90613ea4565b60006040518083038185875af1925050503d80600081146113eb576040519150601f19603f3d011682016040523d82523d6000602084013e6113f0565b606091505b5050905082611434576040517f08c379a000000000000000000000000000000000000000000000000000000000815260040161142b90614058565b60405180910390fd5b81611474576040517f08c379a000000000000000000000000000000000000000000000000000000000815260040161146b906140d8565b60405180910390fd5b806114b4576040517f08c379a00000000000000000000000000000000000000000000000000000000081526004016114ab90613f78565b60405180910390fd5b5050506001600c81905550565b601a5481565b6114e283838360405180602001604052806000815250611c21565b505050565b60105481565b600960009054906101000a900460ff1681565b6000600a60008373ffffffffffffffffffffffffffffffffffffffff1673ffffffffffffffffffffffffffffffffffffffff168152602001908152602001600020549050919050565b6000611554826127c7565b600001519050919050565b600d5481565b601860009054906101000a900460ff1681565b60008073ffffffffffffffffffffffffffffffffffffffff168273ffffffffffffffffffffffffffffffffffffffff1614156115e0576040517f8f4eb60400000000000000000000000000000000000000000000000000000000815260040160405180910390fd5b600560008373ffffffffffffffffffffffffffffffffffffffff1673ffffffffffffffffffffffffffffffffffffffff16815260200190815260200160002060000160009054906101000a900467ffffffffffffffff1667ffffffffffffffff169050919050565b61165061214b565b61165a6000612a52565b565b60125481565b61166a61214b565b80601860006101000a81548160ff02191690831515021790555050565b61168f61214b565b61169881612b18565b50565b600960009054906101000a900460ff166116ea576040517f08c379a00000000000000000000000000000000000000000000000000000000081526004016116e190614158565b60405180910390fd5b33816116f68282611bdf565b611735576040517f08c379a000000000000000000000000000000000000000000000000000000000815260040161172c90613f98565b60405180910390fd5b83600f5481611742610d02565b61174c91906142f8565b111561178d576040517f08c379a000000000000000000000000000000000000000000000000000000000815260040161178490614078565b60405180910390fd5b6002600c5414156117d3576040517f08c379a00000000000000000000000000000000000000000000000000000000081526004016117ca90614178565b60405180910390fd5b6002600c819055506000851161181e576040517f08c379a0000000000000000000000000000000000000000000000000000000008152600401611815906141b8565b60405180910390fd5b600f548560195461182f91906142f8565b1115611870576040517f08c379a0000000000000000000000000000000000000000000000000000000008152600401611867906141d8565b60405180910390fd5b60135485601460003373ffffffffffffffffffffffffffffffffffffffff1673ffffffffffffffffffffffffffffffffffffffff168152602001908152602001600020546118be91906142f8565b11156118ff576040517f08c379a00000000000000000000000000000000000000000000000000000000081526004016118f6906140f8565b60405180910390fd5b846019600082825461191191906142f8565b9250508190555084601460003373ffffffffffffffffffffffffffffffffffffffff1673ffffffffffffffffffffffffffffffffffffffff168152602001908152602001600020600082825461196791906142f8565b92505081905550611978338661278c565b6001600c819055505050505050565b6000600b60009054906101000a900473ffffffffffffffffffffffffffffffffffffffff16905090565b6119b961214b565b8181601791906119ca9291906133d6565b505050565b6060600380546119de906144cd565b80601f0160208091040260200160405190810160405280929190818152602001828054611a0a906144cd565b8015611a575780601f10611a2c57610100808354040283529160200191611a57565b820191906000526020600020905b815481529060010190602001808311611a3a57829003601f168201915b5050505050905090565b60115481565b611a6f612217565b73ffffffffffffffffffffffffffffffffffffffff168273ffffffffffffffffffffffffffffffffffffffff161415611ad4576040517fb06307db00000000000000000000000000000000000000000000000000000000815260040160405180910390fd5b8060076000611ae1612217565b73ffffffffffffffffffffffffffffffffffffffff1673ffffffffffffffffffffffffffffffffffffffff16815260200190815260200160002060008473ffffffffffffffffffffffffffffffffffffffff1673ffffffffffffffffffffffffffffffffffffffff16815260200190815260200160002060006101000a81548160ff0219169083151502179055508173ffffffffffffffffffffffffffffffffffffffff16611b8e612217565b73ffffffffffffffffffffffffffffffffffffffff167f17307eab39ab6107e8899845ad3d59bd9653f200f220920489ca2b5937696c3183604051611bd39190613f20565b60405180910390a35050565b60008083604051602001611bf39190613e5a565b604051602081830303815290604052805190602001209050611c188360085483612b5b565b91505092915050565b611c2c8484846122d6565b611c4b8373ffffffffffffffffffffffffffffffffffffffff16612b72565b15611c9357611c5c84848484612b95565b611c92576040517fd1a57ed600000000000000000000000000000000000000000000000000000000815260040160405180910390fd5b5b50505050565b6060611ca4826121c9565b611ce3576040517f08c379a0000000000000000000000000000000000000000000000000000000008152600401611cda90614198565b60405180910390fd5b6017611cee83612cf5565b604051602001611cff929190613e75565b6040516020818303038152906040529050919050565b600e5481565b6000600760008473ffffffffffffffffffffffffffffffffffffffff1673ffffffffffffffffffffffffffffffffffffffff16815260200190815260200160002060008373ffffffffffffffffffffffffffffffffffffffff1673ffffffffffffffffffffffffffffffffffffffff16815260200190815260200160002060009054906101000a900460ff16905092915050565b600960009054906101000a900460ff16611dfe576040517f08c379a0000000000000000000000000000000000000000000000000000000008152600401611df590614158565b60405180910390fd5b601860019054906101000a900460ff16611e4d576040517f08c379a0000000000000000000000000000000000000000000000000000000008152600401611e44906140b8565b60405180910390fd5b3381611e598282611bdf565b611e98576040517f08c379a0000000000000000000000000000000000000000000000000000000008152600401611e8f90613f98565b60405180910390fd5b33846011546000611ea884611500565b9050818382611eb791906142f8565b1115611ef8576040517f08c379a0000000000000000000000000000000000000000000000000000000008152600401611eef90614018565b60405180910390fd5b87600e5481611f05610d02565b611f0f91906142f8565b1115611f50576040517f08c379a0000000000000000000000000000000000000000000000000000000008152600401611f4790613fd8565b60405180910390fd5b6002600c541415611f96576040517f08c379a0000000000000000000000000000000000000000000000000000000008152600401611f8d90614178565b60405180910390fd5b6002600c8190555060008911611fe1576040517f08c379a0000000000000000000000000000000000000000000000000000000008152600401611fd8906141b8565b60405180910390fd5b34600d548a611ff0919061437f565b14612030576040517f08c379a000000000000000000000000000000000000000000000000000000000815260040161202790614038565b60405180910390fd5b61203a338a612ea2565b612044338a61278c565b6001600c81905550505050505050505050565b61205f61214b565b600073ffffffffffffffffffffffffffffffffffffffff168173ffffffffffffffffffffffffffffffffffffffff1614156120cf576040517f08c379a00000000000000000000000000000000000000000000000000000000081526004016120c690613fb8565b60405180910390fd5b6120d881612a52565b50565b600f5481565b60007f01ffc9a7000000000000000000000000000000000000000000000000000000007bffffffffffffffffffffffffffffffffffffffffffffffffffffffff1916827bffffffffffffffffffffffffffffffffffffffffffffffffffffffff1916149050919050565b612153612217565b73ffffffffffffffffffffffffffffffffffffffff16612171611987565b73ffffffffffffffffffffffffffffffffffffffff16146121c7576040517f08c379a00000000000000000000000000000000000000000000000000000000081526004016121be90614118565b60405180910390fd5b565b6000816121d46122d1565b111580156121e3575060005482105b8015612210575060046000838152602001908152602001600020600001601c9054906101000a900460ff16155b9050919050565b600033905090565b826006600084815260200190815260200160002060006101000a81548173ffffffffffffffffffffffffffffffffffffffff021916908373ffffffffffffffffffffffffffffffffffffffff160217905550818373ffffffffffffffffffffffffffffffffffffffff168273ffffffffffffffffffffffffffffffffffffffff167f8c5be1e5ebec7d5bd14f71427d1e84f3dd0314c0f7b2291e5b200ac8c7c3b92560405160405180910390a4505050565b600090565b60006122e1826127c7565b90508373ffffffffffffffffffffffffffffffffffffffff16816000015173ffffffffffffffffffffffffffffffffffffffff161461234c576040517fa114810000000000000000000000000000000000000000000000000000000000815260040160405180910390fd5b60008473ffffffffffffffffffffffffffffffffffffffff1661236d612217565b73ffffffffffffffffffffffffffffffffffffffff16148061239c575061239b85612396612217565b611d1b565b5b806123e157506123aa612217565b73ffffffffffffffffffffffffffffffffffffffff166123c984610b7b565b73ffffffffffffffffffffffffffffffffffffffff16145b90508061241a576040517f59c896be00000000000000000000000000000000000000000000000000000000815260040160405180910390fd5b600073ffffffffffffffffffffffffffffffffffffffff168473ffffffffffffffffffffffffffffffffffffffff161415612481576040517fea553b3400000000000000000000000000000000000000000000000000000000815260040160405180910390fd5b61248e8585856001612f4a565b61249a6000848761221f565b6001600560008773ffffffffffffffffffffffffffffffffffffffff1673ffffffffffffffffffffffffffffffffffffffff16815260200190815260200160002060000160008282829054906101000a900467ffffffffffffffff160392506101000a81548167ffffffffffffffff021916908367ffffffffffffffff1602179055506001600560008673ffffffffffffffffffffffffffffffffffffffff1673ffffffffffffffffffffffffffffffffffffffff16815260200190815260200160002060000160008282829054906101000a900467ffffffffffffffff160192506101000a81548167ffffffffffffffff021916908367ffffffffffffffff1602179055506000600460008581526020019081526020016000209050848160000160006101000a81548173ffffffffffffffffffffffffffffffffffffffff021916908373ffffffffffffffffffffffffffffffffffffffff160217905550428160000160146101000a81548167ffffffffffffffff021916908367ffffffffffffffff16021790555060006001850190506000600460008381526020019081526020016000209050600073ffffffffffffffffffffffffffffffffffffffff168160000160009054906101000a900473ffffffffffffffffffffffffffffffffffffffff1673ffffffffffffffffffffffffffffffffffffffff16141561271a57600054821461271957878160000160006101000a81548173ffffffffffffffffffffffffffffffffffffffff021916908373ffffffffffffffffffffffffffffffffffffffff16021790555084602001518160000160146101000a81548167ffffffffffffffff021916908367ffffffffffffffff1602179055505b5b505050828473ffffffffffffffffffffffffffffffffffffffff168673ffffffffffffffffffffffffffffffffffffffff167fddf252ad1be2c89b69c2b068fc378daa952ba7f163c4a11628f55a4df523b3ef60405160405180910390a46127858585856001612f50565b5050505050565b6127a6828260405180602001604052806000815250612f56565b5050565b80600960006101000a81548160ff02191690831515021790555050565b6127cf61345c565b6000829050806127dd6122d1565b11612a1b57600054811015612a1a576000600460008381526020019081526020016000206040518060600160405290816000820160009054906101000a900473ffffffffffffffffffffffffffffffffffffffff1673ffffffffffffffffffffffffffffffffffffffff1673ffffffffffffffffffffffffffffffffffffffff1681526020016000820160149054906101000a900467ffffffffffffffff1667ffffffffffffffff1667ffffffffffffffff16815260200160008201601c9054906101000a900460ff16151515158152505090508060400151612a1857600073ffffffffffffffffffffffffffffffffffffffff16816000015173ffffffffffffffffffffffffffffffffffffffff16146128fc578092505050612a4d565b5b600115612a1757818060019003925050600460008381526020019081526020016000206040518060600160405290816000820160009054906101000a900473ffffffffffffffffffffffffffffffffffffffff1673ffffffffffffffffffffffffffffffffffffffff1673ffffffffffffffffffffffffffffffffffffffff1681526020016000820160149054906101000a900467ffffffffffffffff1667ffffffffffffffff1667ffffffffffffffff16815260200160008201601c9054906101000a900460ff1615151515815250509050600073ffffffffffffffffffffffffffffffffffffffff16816000015173ffffffffffffffffffffffffffffffffffffffff1614612a12578092505050612a4d565b6128fd565b5b505b5b6040517fdf2d9b4200000000000000000000000000000000000000000000000000000000815260040160405180910390fd5b919050565b6000600b60009054906101000a900473ffffffffffffffffffffffffffffffffffffffff16905081600b60006101000a81548173ffffffffffffffffffffffffffffffffffffffff021916908373ffffffffffffffffffffffffffffffffffffffff1602179055508173ffffffffffffffffffffffffffffffffffffffff168173ffffffffffffffffffffffffffffffffffffffff167f8be0079c531659141344cd1fd0a4f28419497f9722a3daafe3b4186f6b6457e060405160405180910390a35050565b806008819055507f1b930366dfeaa7eb3b325021e4ae81e36527063452ee55b86c95f85b36f4c31c600854604051612b509190613f3b565b60405180910390a150565b600082612b688584613318565b1490509392505050565b6000808273ffffffffffffffffffffffffffffffffffffffff163b119050919050565b60008373ffffffffffffffffffffffffffffffffffffffff1663150b7a02612bbb612217565b8786866040518563ffffffff1660e01b8152600401612bdd9493929190613ed4565b602060405180830381600087803b158015612bf757600080fd5b505af1925050508015612c2857506040513d601f19601f82011682018060405250810190612c2591906138f8565b60015b612ca2573d8060008114612c58576040519150601f19603f3d011682016040523d82523d6000602084013e612c5d565b606091505b50600081511415612c9a576040517fd1a57ed600000000000000000000000000000000000000000000000000000000815260040160405180910390fd5b805181602001fd5b63150b7a0260e01b7bffffffffffffffffffffffffffffffffffffffffffffffffffffffff1916817bffffffffffffffffffffffffffffffffffffffffffffffffffffffff191614915050949350505050565b60606000821415612d3d576040518060400160405280600181526020017f30000000000000000000000000000000000000000000000000000000000000008152509050612e9d565b600082905060005b60008214612d6f578080612d5890614530565b915050600a82612d68919061434e565b9150612d45565b60008167ffffffffffffffff811115612db1577f4e487b7100000000000000000000000000000000000000000000000000000000600052604160045260246000fd5b6040519080825280601f01601f191660200182016040528015612de35781602001600182028036833780820191505090505b5090505b60008514612e9657600182612dfc91906143d9565b9150600a85612e0b919061459d565b6030612e1791906142f8565b60f81b818381518110612e53577f4e487b7100000000000000000000000000000000000000000000000000000000600052603260045260246000fd5b60200101907effffffffffffffffffffffffffffffffffffffffffffffffffffffffffffff1916908160001a905350600a85612e8f919061434e565b9450612de7565b8093505050505b919050565b80600a60008473ffffffffffffffffffffffffffffffffffffffff1673ffffffffffffffffffffffffffffffffffffffff1681526020019081526020016000206000828254612ef191906142f8565b925050819055508173ffffffffffffffffffffffffffffffffffffffff167fd8138f8a3f377c5259ca548e70e4c2de94f129f5a11036a15b69513cba2b426a82604051612f3e91906141f8565b60405180910390a25050565b50505050565b50505050565b600080549050600073ffffffffffffffffffffffffffffffffffffffff168473ffffffffffffffffffffffffffffffffffffffff161415612fc3576040517f2e07630000000000000000000000000000000000000000000000000000000000815260040160405180910390fd5b6000831415612ffe576040517fb562e8dd00000000000000000000000000000000000000000000000000000000815260040160405180910390fd5b61300b6000858386612f4a565b82600560008673ffffffffffffffffffffffffffffffffffffffff1673ffffffffffffffffffffffffffffffffffffffff16815260200190815260200160002060000160008282829054906101000a900467ffffffffffffffff160192506101000a81548167ffffffffffffffff021916908367ffffffffffffffff16021790555082600560008673ffffffffffffffffffffffffffffffffffffffff1673ffffffffffffffffffffffffffffffffffffffff16815260200190815260200160002060000160088282829054906101000a900467ffffffffffffffff160192506101000a81548167ffffffffffffffff021916908367ffffffffffffffff160217905550836004600083815260200190815260200160002060000160006101000a81548173ffffffffffffffffffffffffffffffffffffffff021916908373ffffffffffffffffffffffffffffffffffffffff160217905550426004600083815260200190815260200160002060000160146101000a81548167ffffffffffffffff021916908367ffffffffffffffff1602179055506000819050600084820190506131cc8673ffffffffffffffffffffffffffffffffffffffff16612b72565b15613291575b818673ffffffffffffffffffffffffffffffffffffffff16600073ffffffffffffffffffffffffffffffffffffffff167fddf252ad1be2c89b69c2b068fc378daa952ba7f163c4a11628f55a4df523b3ef60405160405180910390a46132416000878480600101955087612b95565b613277576040517fd1a57ed600000000000000000000000000000000000000000000000000000000815260040160405180910390fd5b8082106131d257826000541461328c57600080fd5b6132fc565b5b818060010192508673ffffffffffffffffffffffffffffffffffffffff16600073ffffffffffffffffffffffffffffffffffffffff167fddf252ad1be2c89b69c2b068fc378daa952ba7f163c4a11628f55a4df523b3ef60405160405180910390a4808210613292575b8160008190555050506133126000858386612f50565b50505050565b60008082905060005b84518110156133895761337482868381518110613367577f4e487b7100000000000000000000000000000000000000000000000000000000600052603260045260246000fd5b6020026020010151613394565b9150808061338190614530565b915050613321565b508091505092915050565b60008183106133ac576133a782846133bf565b6133b7565b6133b683836133bf565b5b905092915050565b600082600052816020526040600020905092915050565b8280546133e2906144cd565b90600052602060002090601f016020900481019282613404576000855561344b565b82601f1061341d57803560ff191683800117855561344b565b8280016001018555821561344b579182015b8281111561344a57823582559160200191906001019061342f565b5b509050613458919061349f565b5090565b6040518060600160405280600073ffffffffffffffffffffffffffffffffffffffff168152602001600067ffffffffffffffff1681526020016000151581525090565b5b808211156134b85760008160009055506001016134a0565b5090565b60006134cf6134ca84614238565b614213565b905080838252602082019050828560208602820111156134ee57600080fd5b60005b8581101561351e578161350488826135ba565b8452602084019350602083019250506001810190506134f1565b5050509392505050565b600061353b61353684614264565b614213565b90508281526020810184848401111561355357600080fd5b61355e84828561448b565b509392505050565b60008135905061357581614a7a565b92915050565b600082601f83011261358c57600080fd5b813561359c8482602086016134bc565b91505092915050565b6000813590506135b481614a91565b92915050565b6000813590506135c981614aa8565b92915050565b6000813590506135de81614abf565b92915050565b6000815190506135f381614abf565b92915050565b600082601f83011261360a57600080fd5b813561361a848260208601613528565b91505092915050565b60008083601f84011261363557600080fd5b8235905067ffffffffffffffff81111561364e57600080fd5b60208301915083600182028301111561366657600080fd5b9250929050565b60008135905061367c81614ad6565b92915050565b60006020828403121561369457600080fd5b60006136a284828501613566565b91505092915050565b600080604083850312156136be57600080fd5b60006136cc85828601613566565b92505060206136dd85828601613566565b9150509250929050565b6000806000606084860312156136fc57600080fd5b600061370a86828701613566565b935050602061371b86828701613566565b925050604061372c8682870161366d565b9150509250925092565b6000806000806080858703121561374c57600080fd5b600061375a87828801613566565b945050602061376b87828801613566565b935050604061377c8782880161366d565b925050606085013567ffffffffffffffff81111561379957600080fd5b6137a5878288016135f9565b91505092959194509250565b600080604083850312156137c457600080fd5b60006137d285828601613566565b925050602083013567ffffffffffffffff8111156137ef57600080fd5b6137fb8582860161357b565b9150509250929050565b6000806040838503121561381857600080fd5b600061382685828601613566565b9250506020613837858286016135a5565b9150509250929050565b6000806040838503121561385457600080fd5b600061386285828601613566565b92505060206138738582860161366d565b9150509250929050565b60006020828403121561388f57600080fd5b600061389d848285016135a5565b91505092915050565b6000602082840312156138b857600080fd5b60006138c6848285016135ba565b91505092915050565b6000602082840312156138e157600080fd5b60006138ef848285016135cf565b91505092915050565b60006020828403121561390a57600080fd5b6000613918848285016135e4565b91505092915050565b6000806020838503121561393457600080fd5b600083013567ffffffffffffffff81111561394e57600080fd5b61395a85828601613623565b92509250509250929050565b60006020828403121561397857600080fd5b60006139868482850161366d565b91505092915050565b600080604083850312156139a257600080fd5b60006139b08582860161366d565b925050602083013567ffffffffffffffff8111156139cd57600080fd5b6139d98582860161357b565b9150509250929050565b6139ec8161440d565b82525050565b613a036139fe8261440d565b614579565b82525050565b613a128161441f565b82525050565b613a218161442b565b82525050565b6000613a32826142aa565b613a3c81856142c0565b9350613a4c81856020860161449a565b613a558161468a565b840191505092915050565b6000613a6b826142b5565b613a7581856142dc565b9350613a8581856020860161449a565b613a8e8161468a565b840191505092915050565b6000613aa4826142b5565b613aae81856142ed565b9350613abe81856020860161449a565b80840191505092915050565b60008154613ad7816144cd565b613ae181866142ed565b94506001821660008114613afc5760018114613b0d57613b40565b60ff19831686528186019350613b40565b613b1685614295565b60005b83811015613b3857815481890152600182019150602081019050613b19565b838801955050505b50505092915050565b6000613b566011836142dc565b9150613b61826146a8565b602082019050919050565b6000613b796011836142dc565b9150613b84826146d1565b602082019050919050565b6000613b9c6026836142dc565b9150613ba7826146fa565b604082019050919050565b6000613bbf6020836142dc565b9150613bca82614749565b602082019050919050565b6000613be26017836142dc565b9150613bed82614772565b602082019050919050565b6000613c05602f836142dc565b9150613c108261479b565b604082019050919050565b6000613c28601f836142dc565b9150613c33826147ea565b602082019050919050565b6000613c4b6011836142dc565b9150613c5682614813565b602082019050919050565b6000613c6e6025836142dc565b9150613c798261483c565b604082019050919050565b6000613c91600e836142dc565b9150613c9c8261488b565b602082019050919050565b6000613cb46019836142dc565b9150613cbf826148b4565b602082019050919050565b6000613cd76011836142dc565b9150613ce2826148dd565b602082019050919050565b6000613cfa6005836142ed565b9150613d0582614906565b600582019050919050565b6000613d1d6011836142dc565b9150613d288261492f565b602082019050919050565b6000613d406020836142dc565b9150613d4b82614958565b602082019050919050565b6000613d63601b836142dc565b9150613d6e82614981565b602082019050919050565b6000613d866000836142d1565b9150613d91826149aa565b600082019050919050565b6000613da96018836142dc565b9150613db4826149ad565b602082019050919050565b6000613dcc601f836142dc565b9150613dd7826149d6565b602082019050919050565b6000613def6015836142dc565b9150613dfa826149ff565b602082019050919050565b6000613e126016836142dc565b9150613e1d82614a28565b602082019050919050565b6000613e356016836142dc565b9150613e4082614a51565b602082019050919050565b613e5481614481565b82525050565b6000613e6682846139f2565b60148201915081905092915050565b6000613e818285613aca565b9150613e8d8284613a99565b9150613e9882613ced565b91508190509392505050565b6000613eaf82613d79565b9150819050919050565b6000602082019050613ece60008301846139e3565b92915050565b6000608082019050613ee960008301876139e3565b613ef660208301866139e3565b613f036040830185613e4b565b8181036060830152613f158184613a27565b905095945050505050565b6000602082019050613f356000830184613a09565b92915050565b6000602082019050613f506000830184613a18565b92915050565b60006020820190508181036000830152613f708184613a60565b905092915050565b60006020820190508181036000830152613f9181613b49565b9050919050565b60006020820190508181036000830152613fb181613b6c565b9050919050565b60006020820190508181036000830152613fd181613b8f565b9050919050565b60006020820190508181036000830152613ff181613bb2565b9050919050565b6000602082019050818103600083015261401181613bd5565b9050919050565b6000602082019050818103600083015261403181613bf8565b9050919050565b6000602082019050818103600083015261405181613c1b565b9050919050565b6000602082019050818103600083015261407181613c3e565b9050919050565b6000602082019050818103600083015261409181613c61565b9050919050565b600060208201905081810360008301526140b181613c84565b9050919050565b600060208201905081810360008301526140d181613ca7565b9050919050565b600060208201905081810360008301526140f181613cca565b9050919050565b6000602082019050818103600083015261411181613d10565b9050919050565b6000602082019050818103600083015261413181613d33565b9050919050565b6000602082019050818103600083015261415181613d56565b9050919050565b6000602082019050818103600083015261417181613d9c565b9050919050565b6000602082019050818103600083015261419181613dbf565b9050919050565b600060208201905081810360008301526141b181613de2565b9050919050565b600060208201905081810360008301526141d181613e05565b9050919050565b600060208201905081810360008301526141f181613e28565b9050919050565b600060208201905061420d6000830184613e4b565b92915050565b600061421d61422e565b905061422982826144ff565b919050565b6000604051905090565b600067ffffffffffffffff8211156142535761425261465b565b5b602082029050602081019050919050565b600067ffffffffffffffff82111561427f5761427e61465b565b5b6142888261468a565b9050602081019050919050565b60008190508160005260206000209050919050565b600081519050919050565b600081519050919050565b600082825260208201905092915050565b600081905092915050565b600082825260208201905092915050565b600081905092915050565b600061430382614481565b915061430e83614481565b9250827fffffffffffffffffffffffffffffffffffffffffffffffffffffffffffffffff03821115614343576143426145ce565b5b828201905092915050565b600061435982614481565b915061436483614481565b925082614374576143736145fd565b5b828204905092915050565b600061438a82614481565b915061439583614481565b9250817fffffffffffffffffffffffffffffffffffffffffffffffffffffffffffffffff04831182151516156143ce576143cd6145ce565b5b828202905092915050565b60006143e482614481565b91506143ef83614481565b925082821015614402576144016145ce565b5b828203905092915050565b600061441882614461565b9050919050565b60008115159050919050565b6000819050919050565b60007fffffffff0000000000000000000000000000000000000000000000000000000082169050919050565b600073ffffffffffffffffffffffffffffffffffffffff82169050919050565b6000819050919050565b82818337600083830152505050565b60005b838110156144b857808201518184015260208101905061449d565b838111156144c7576000848401525b50505050565b600060028204905060018216806144e557607f821691505b602082108114156144f9576144f861462c565b5b50919050565b6145088261468a565b810181811067ffffffffffffffff821117156145275761452661465b565b5b80604052505050565b600061453b82614481565b91507fffffffffffffffffffffffffffffffffffffffffffffffffffffffffffffffff82141561456e5761456d6145ce565b5b600182019050919050565b60006145848261458b565b9050919050565b60006145968261469b565b9050919050565b60006145a882614481565b91506145b383614481565b9250826145c3576145c26145fd565b5b828206905092915050565b7f4e487b7100000000000000000000000000000000000000000000000000000000600052601160045260246000fd5b7f4e487b7100000000000000000000000000000000000000000000000000000000600052601260045260246000fd5b7f4e487b7100000000000000000000000000000000000000000000000000000000600052602260045260246000fd5b7f4e487b7100000000000000000000000000000000000000000000000000000000600052604160045260246000fd5b6000601f19601f8301169050919050565b60008160601b9050919050565b7f5472616e736665722033206661696c6564000000000000000000000000000000600082015250565b7f4e6f74206f6e20616c6c6f77206c697374000000000000000000000000000000600082015250565b7f4f776e61626c653a206e6577206f776e657220697320746865207a65726f206160008201527f6464726573730000000000000000000000000000000000000000000000000000602082015250565b7f507572636861736520776f756c6420657863656564206d617820746f6b656e73600082015250565b7f6d696e746564206f7574207465616d2072657365727665000000000000000000600082015250565b7f507572636861736520776f756c6420657863656564206e756d626572206f662060008201527f746f6b656e7320616c6c6f747465640000000000000000000000000000000000602082015250565b7f45746865722076616c75652073656e74206973206e6f7420636f727265637400600082015250565b7f5472616e736665722031206661696c6564000000000000000000000000000000600082015250565b7f507572636861736520776f756c6420657863656564206d61782056495020726560008201527f7365727665000000000000000000000000000000000000000000000000000000602082015250565b7f496e76616c69642073656e646572000000000000000000000000000000000000600082015250565b7f5075626c69632073616c65206973206e6f742061637469766500000000000000600082015250565b7f5472616e736665722032206661696c6564000000000000000000000000000000600082015250565b7f2e6a736f6e000000000000000000000000000000000000000000000000000000600082015250565b7f657863656564206d61782077616c6c6574000000000000000000000000000000600082015250565b7f4f776e61626c653a2063616c6c6572206973206e6f7420746865206f776e6572600082015250565b7f4578636565646564206d617820746f6b656e2070757263686173650000000000600082015250565b50565b7f416c6c6f77206c697374206973206e6f74206163746976650000000000000000600082015250565b7f5265656e7472616e637947756172643a207265656e7472616e742063616c6c00600082015250565b7f546f6b656e20646f6573206e6f74206578697374210000000000000000000000600082015250565b7f4d757374206d696e74206174206c65617374206f6e6500000000000000000000600082015250565b7f6d696e746564206f757420564950207265736572766500000000000000000000600082015250565b614a838161440d565b8114614a8e57600080fd5b50565b614a9a8161441f565b8114614aa557600080fd5b50565b614ab18161442b565b8114614abc57600080fd5b50565b614ac881614435565b8114614ad357600080fd5b50565b614adf81614481565b8114614aea57600080fd5b5056fea26469706673582212204668d898fc18945644de5a41740926fcb0a3b44efa23ab1d5ef4acbceea962c064736f6c63430008040033",
  "linkReferences": {},
  "deployedLinkReferences": {}
}